{
  "contractName": "Token",
  "abi": [
    {
      "inputs": [],
      "stateMutability": "nonpayable",
      "type": "constructor"
    },
    {
      "anonymous": false,
      "inputs": [
        {
          "indexed": true,
          "internalType": "address",
          "name": "owner",
          "type": "address"
        },
        {
          "indexed": true,
          "internalType": "address",
          "name": "spender",
          "type": "address"
        },
        {
          "indexed": false,
          "internalType": "uint256",
          "name": "value",
          "type": "uint256"
        }
      ],
      "name": "Approval",
      "type": "event"
    },
    {
      "anonymous": false,
      "inputs": [
        {
          "indexed": true,
          "internalType": "address",
          "name": "previousOwner",
          "type": "address"
        },
        {
          "indexed": true,
          "internalType": "address",
          "name": "newOwner",
          "type": "address"
        }
      ],
      "name": "OwnershipTransferred",
      "type": "event"
    },
    {
      "anonymous": false,
      "inputs": [
        {
          "indexed": true,
          "internalType": "address",
          "name": "user",
          "type": "address"
        },
        {
          "indexed": false,
          "internalType": "uint256",
          "name": "amount",
          "type": "uint256"
        },
        {
          "indexed": false,
          "internalType": "uint256",
          "name": "index",
          "type": "uint256"
        },
        {
          "indexed": false,
          "internalType": "uint256",
          "name": "timestamp",
          "type": "uint256"
        }
      ],
      "name": "Staked",
      "type": "event"
    },
    {
      "anonymous": false,
      "inputs": [
        {
          "indexed": true,
          "internalType": "address",
          "name": "from",
          "type": "address"
        },
        {
          "indexed": true,
          "internalType": "address",
          "name": "to",
          "type": "address"
        },
        {
          "indexed": false,
          "internalType": "uint256",
          "name": "value",
          "type": "uint256"
        }
      ],
      "name": "Transfer",
      "type": "event"
    },
    {
      "inputs": [
        {
          "internalType": "address",
          "name": "",
          "type": "address"
        },
        {
          "internalType": "address",
          "name": "",
          "type": "address"
        }
      ],
      "name": "allowance_",
      "outputs": [
        {
          "internalType": "uint256",
          "name": "",
          "type": "uint256"
        }
      ],
      "stateMutability": "view",
      "type": "function",
      "constant": true
    },
    {
      "inputs": [
        {
          "internalType": "address",
          "name": "",
          "type": "address"
        }
      ],
      "name": "balanceOf_",
      "outputs": [
        {
          "internalType": "uint256",
          "name": "",
          "type": "uint256"
        }
      ],
      "stateMutability": "view",
      "type": "function",
      "constant": true
    },
    {
      "inputs": [],
      "name": "decimals_",
      "outputs": [
        {
          "internalType": "uint8",
          "name": "",
          "type": "uint8"
        }
      ],
      "stateMutability": "view",
      "type": "function",
      "constant": true
    },
    {
      "inputs": [],
      "name": "name_",
      "outputs": [
        {
          "internalType": "string",
          "name": "",
          "type": "string"
        }
      ],
      "stateMutability": "view",
      "type": "function",
      "constant": true
    },
    {
      "inputs": [],
      "name": "owner",
      "outputs": [
        {
          "internalType": "address",
          "name": "",
          "type": "address"
        }
      ],
      "stateMutability": "view",
      "type": "function",
      "constant": true
    },
    {
      "inputs": [],
      "name": "owner_",
      "outputs": [
        {
          "internalType": "address payable",
          "name": "",
          "type": "address"
        }
      ],
      "stateMutability": "view",
      "type": "function",
      "constant": true
    },
    {
      "inputs": [],
      "name": "renounceOwnership",
      "outputs": [],
      "stateMutability": "nonpayable",
      "type": "function"
    },
    {
      "inputs": [],
      "name": "symbol_",
      "outputs": [
        {
          "internalType": "string",
          "name": "",
          "type": "string"
        }
      ],
      "stateMutability": "view",
      "type": "function",
      "constant": true
    },
    {
      "inputs": [],
      "name": "totalSupply_",
      "outputs": [
        {
          "internalType": "uint256",
          "name": "",
          "type": "uint256"
        }
      ],
      "stateMutability": "view",
      "type": "function",
      "constant": true
    },
    {
      "inputs": [
        {
          "internalType": "address",
          "name": "newOwner",
          "type": "address"
        }
      ],
      "name": "transferOwnership",
      "outputs": [],
      "stateMutability": "nonpayable",
      "type": "function"
    },
    {
      "inputs": [],
      "name": "totalSupply",
      "outputs": [
        {
          "internalType": "uint256",
          "name": "",
          "type": "uint256"
        }
      ],
      "stateMutability": "view",
      "type": "function",
      "constant": true
    },
    {
      "inputs": [],
      "name": "decimals",
      "outputs": [
        {
          "internalType": "uint8",
          "name": "",
          "type": "uint8"
        }
      ],
      "stateMutability": "view",
      "type": "function",
      "constant": true
    },
    {
      "inputs": [],
      "name": "symbol",
      "outputs": [
        {
          "internalType": "string",
          "name": "",
          "type": "string"
        }
      ],
      "stateMutability": "view",
      "type": "function",
      "constant": true
    },
    {
      "inputs": [],
      "name": "name",
      "outputs": [
        {
          "internalType": "string",
          "name": "",
          "type": "string"
        }
      ],
      "stateMutability": "view",
      "type": "function",
      "constant": true
    },
    {
      "inputs": [],
      "name": "getOwner",
      "outputs": [
        {
          "internalType": "address",
          "name": "",
          "type": "address"
        }
      ],
      "stateMutability": "view",
      "type": "function",
      "constant": true
    },
    {
      "inputs": [
        {
          "internalType": "address",
          "name": "account",
          "type": "address"
        }
      ],
      "name": "balanceOf",
      "outputs": [
        {
          "internalType": "uint256",
          "name": "",
          "type": "uint256"
        }
      ],
      "stateMutability": "view",
      "type": "function",
      "constant": true
    },
    {
      "inputs": [
        {
          "internalType": "address",
          "name": "recipient",
          "type": "address"
        },
        {
          "internalType": "uint256",
          "name": "amount",
          "type": "uint256"
        }
      ],
      "name": "transfer",
      "outputs": [
        {
          "internalType": "bool",
          "name": "",
          "type": "bool"
        }
      ],
      "stateMutability": "nonpayable",
      "type": "function"
    },
    {
      "inputs": [
        {
          "internalType": "address",
          "name": "_owner",
          "type": "address"
        },
        {
          "internalType": "address",
          "name": "spender",
          "type": "address"
        }
      ],
      "name": "allowance",
      "outputs": [
        {
          "internalType": "uint256",
          "name": "",
          "type": "uint256"
        }
      ],
      "stateMutability": "view",
      "type": "function",
      "constant": true
    },
    {
      "inputs": [
        {
          "internalType": "address",
          "name": "spender",
          "type": "address"
        },
        {
          "internalType": "uint256",
          "name": "amount",
          "type": "uint256"
        }
      ],
      "name": "approve",
      "outputs": [
        {
          "internalType": "bool",
          "name": "",
          "type": "bool"
        }
      ],
      "stateMutability": "nonpayable",
      "type": "function"
    },
    {
      "inputs": [
        {
          "internalType": "address",
          "name": "sender",
          "type": "address"
        },
        {
          "internalType": "address",
          "name": "recipient",
          "type": "address"
        },
        {
          "internalType": "uint256",
          "name": "amount",
          "type": "uint256"
        }
      ],
      "name": "transferFrom",
      "outputs": [
        {
          "internalType": "bool",
          "name": "",
          "type": "bool"
        }
      ],
      "stateMutability": "nonpayable",
      "type": "function"
    },
    {
      "inputs": [
        {
          "internalType": "uint256",
          "name": "amount",
          "type": "uint256"
        }
      ],
      "name": "mint",
      "outputs": [
        {
          "internalType": "bool",
          "name": "",
          "type": "bool"
        }
      ],
      "stateMutability": "nonpayable",
      "type": "function"
    },
    {
      "inputs": [
        {
          "internalType": "uint256",
          "name": "amount",
          "type": "uint256"
        }
      ],
      "name": "burn",
      "outputs": [
        {
          "internalType": "bool",
          "name": "",
          "type": "bool"
        }
      ],
      "stateMutability": "nonpayable",
      "type": "function"
    },
    {
      "inputs": [
        {
          "internalType": "uint256",
          "name": "_amount",
          "type": "uint256"
        }
      ],
      "name": "stake",
      "outputs": [],
      "stateMutability": "nonpayable",
      "type": "function"
    }
  ],
  "bytecode": "0x60806040523480156200001157600080fd5b50336000806101000a81548173ffffffffffffffffffffffffffffffffffffffff021916908373ffffffffffffffffffffffffffffffffffffffff16021790555060008054906101000a900473ffffffffffffffffffffffffffffffffffffffff1673ffffffffffffffffffffffffffffffffffffffff16600073ffffffffffffffffffffffffffffffffffffffff167f8be0079c531659141344cd1fd0a4f28419497f9722a3daafe3b4186f6b6457e060405160405180910390a360018081600181540180825580915050039060005260206000209050506040518060400160405280601181526020017f426c6f636b325363686f6f6c20436f696e000000000000000000000000000000815250600390816200013091906200055d565b506040518060400160405280600381526020017f4232530000000000000000000000000000000000000000000000000000000000815250600490816200017791906200055d565b506008600560006101000a81548160ff021916908360ff1602179055506000600560009054906101000a900460ff16600a620001b49190620007d4565b62989680620001c4919062000825565b905033600760006101000a81548173ffffffffffffffffffffffffffffffffffffffff021916908373ffffffffffffffffffffffffffffffffffffffff1602179055508060086000600760009054906101000a900473ffffffffffffffffffffffffffffffffffffffff1673ffffffffffffffffffffffffffffffffffffffff1673ffffffffffffffffffffffffffffffffffffffff16815260200190815260200160002081905550806006819055503373ffffffffffffffffffffffffffffffffffffffff16600073ffffffffffffffffffffffffffffffffffffffff167fddf252ad1be2c89b69c2b068fc378daa952ba7f163c4a11628f55a4df523b3ef83604051620002d4919062000881565b60405180910390a3506200089e565b600081519050919050565b7f4e487b7100000000000000000000000000000000000000000000000000000000600052604160045260246000fd5b7f4e487b7100000000000000000000000000000000000000000000000000000000600052602260045260246000fd5b600060028204905060018216806200036557607f821691505b6020821081036200037b576200037a6200031d565b5b50919050565b60008190508160005260206000209050919050565b60006020601f8301049050919050565b600082821b905092915050565b600060088302620003e57fffffffffffffffffffffffffffffffffffffffffffffffffffffffffffffffff82620003a6565b620003f18683620003a6565b95508019841693508086168417925050509392505050565b6000819050919050565b6000819050919050565b60006200043e62000438620004328462000409565b62000413565b62000409565b9050919050565b6000819050919050565b6200045a836200041d565b62000472620004698262000445565b848454620003b3565b825550505050565b600090565b620004896200047a565b620004968184846200044f565b505050565b5b81811015620004be57620004b26000826200047f565b6001810190506200049c565b5050565b601f8211156200050d57620004d78162000381565b620004e28462000396565b81016020851015620004f2578190505b6200050a620005018562000396565b8301826200049b565b50505b505050565b600082821c905092915050565b6000620005326000198460080262000512565b1980831691505092915050565b60006200054d83836200051f565b9150826002028217905092915050565b6200056882620002e3565b67ffffffffffffffff811115620005845762000583620002ee565b5b6200059082546200034c565b6200059d828285620004c2565b600060209050601f831160018114620005d55760008415620005c0578287015190505b620005cc85826200053f565b8655506200063c565b601f198416620005e58662000381565b60005b828110156200060f57848901518255600182019150602085019450602081019050620005e8565b868310156200062f57848901516200062b601f8916826200051f565b8355505b6001600288020188555050505b505050505050565b7f4e487b7100000000000000000000000000000000000000000000000000000000600052601160045260246000fd5b60008160011c9050919050565b6000808291508390505b6001851115620006d257808604811115620006aa57620006a962000644565b5b6001851615620006ba5780820291505b8081029050620006ca8562000673565b94506200068a565b94509492505050565b600082620006ed5760019050620007c0565b81620006fd5760009050620007c0565b8160018114620007165760028114620007215762000757565b6001915050620007c0565b60ff84111562000736576200073562000644565b5b8360020a91508482111562000750576200074f62000644565b5b50620007c0565b5060208310610133831016604e8410600b8410161715620007915782820a9050838111156200078b576200078a62000644565b5b620007c0565b620007a0848484600162000680565b92509050818404811115620007ba57620007b962000644565b5b81810290505b9392505050565b600060ff82169050919050565b6000620007e18262000409565b9150620007ee83620007c7565b92506200081d7fffffffffffffffffffffffffffffffffffffffffffffffffffffffffffffffff8484620006db565b905092915050565b6000620008328262000409565b91506200083f8362000409565b92508282026200084f8162000409565b9150828204841483151762000869576200086862000644565b5b5092915050565b6200087b8162000409565b82525050565b600060208201905062000898600083018462000870565b92915050565b6127f080620008ae6000396000f3fe608060405234801561001057600080fd5b506004361061014d5760003560e01c80638da5cb5b116100c3578063dd62ed3e1161007c578063dd62ed3e146103b8578063e2b9e186146103e8578063e670e41d14610406578063e766307914610436578063f2fde38b14610454578063f785ef72146104705761014d565b80638da5cb5b146102e257806395d89b4114610300578063a0712d681461031e578063a694fc3a1461034e578063a9059cbb1461036a578063af17dea61461039a5761014d565b8063313ce56711610115578063313ce5671461021e578063324536eb1461023c57806342966c681461025a57806370a082311461028a578063715018a6146102ba578063893d20e8146102c45761014d565b806306fdde0314610152578063095ea7b31461017057806318160ddd146101a057806323b872dd146101be5780632e953e77146101ee575b600080fd5b61015a61048e565b6040516101679190611d84565b60405180910390f35b61018a60048036038101906101859190611e3f565b610520565b6040516101979190611e9a565b60405180910390f35b6101a86106c4565b6040516101b59190611ec4565b60405180910390f35b6101d860048036038101906101d39190611edf565b6106ce565b6040516101e59190611e9a565b60405180910390f35b61020860048036038101906102039190611f32565b610b57565b6040516102159190611ec4565b60405180910390f35b610226610b6f565b6040516102339190611f7b565b60405180910390f35b610244610b86565b6040516102519190611ec4565b60405180910390f35b610274600480360381019061026f9190611f96565b610b8c565b6040516102819190611e9a565b60405180910390f35b6102a4600480360381019061029f9190611f32565b610e61565b6040516102b19190611ec4565b60405180910390f35b6102c2610eaa565b005b6102cc610ff6565b6040516102d99190611fd2565b60405180910390f35b6102ea611020565b6040516102f79190611fd2565b60405180910390f35b610308611049565b6040516103159190611d84565b60405180910390f35b61033860048036038101906103339190611f96565b6110db565b6040516103459190611e9a565b60405180910390f35b61036860048036038101906103639190611f96565b611350565b005b610384600480360381019061037f9190611e3f565b6113e7565b6040516103919190611e9a565b60405180910390f35b6103a2611675565b6040516103af9190611d84565b60405180910390f35b6103d260048036038101906103cd9190611fed565b611703565b6040516103df9190611ec4565b60405180910390f35b6103f061178a565b6040516103fd9190611d84565b60405180910390f35b610420600480360381019061041b9190611fed565b611818565b60405161042d9190611ec4565b60405180910390f35b61043e61183d565b60405161044b919061204e565b60405180910390f35b61046e60048036038101906104699190611f32565b611863565b005b6104786118fd565b6040516104859190611f7b565b60405180910390f35b60606003805461049d90612098565b80601f01602080910402602001604051908101604052809291908181526020018280546104c990612098565b80156105165780601f106104eb57610100808354040283529160200191610516565b820191906000526020600020905b8154815290600101906020018083116104f957829003601f168201915b5050505050905090565b600080821015610565576040517f08c379a000000000000000000000000000000000000000000000000000000000815260040161055c9061213b565b60405180910390fd5b600073ffffffffffffffffffffffffffffffffffffffff163373ffffffffffffffffffffffffffffffffffffffff16036105d4576040517f08c379a00000000000000000000000000000000000000000000000000000000081526004016105cb906121a7565b60405180910390fd5b81600960003373ffffffffffffffffffffffffffffffffffffffff1673ffffffffffffffffffffffffffffffffffffffff16815260200190815260200160002060008573ffffffffffffffffffffffffffffffffffffffff1673ffffffffffffffffffffffffffffffffffffffff168152602001908152602001600020819055508273ffffffffffffffffffffffffffffffffffffffff163373ffffffffffffffffffffffffffffffffffffffff167f8c5be1e5ebec7d5bd14f71427d1e84f3dd0314c0f7b2291e5b200ac8c7c3b925846040516106b29190611ec4565b60405180910390a36001905092915050565b6000600654905090565b60008073ffffffffffffffffffffffffffffffffffffffff168373ffffffffffffffffffffffffffffffffffffffff160361073e576040517f08c379a000000000000000000000000000000000000000000000000000000000815260040161073590612213565b60405180910390fd5b6000821015610782576040517f08c379a00000000000000000000000000000000000000000000000000000000081526004016107799061213b565b60405180910390fd5b81600860008673ffffffffffffffffffffffffffffffffffffffff1673ffffffffffffffffffffffffffffffffffffffff168152602001908152602001600020541015610804576040517f08c379a00000000000000000000000000000000000000000000000000000000081526004016107fb906122a5565b60405180910390fd5b81600960008673ffffffffffffffffffffffffffffffffffffffff1673ffffffffffffffffffffffffffffffffffffffff16815260200190815260200160002060003373ffffffffffffffffffffffffffffffffffffffff1673ffffffffffffffffffffffffffffffffffffffff1681526020019081526020016000205410156108c3576040517f08c379a00000000000000000000000000000000000000000000000000000000081526004016108ba90612337565b60405180910390fd5b81600860008673ffffffffffffffffffffffffffffffffffffffff1673ffffffffffffffffffffffffffffffffffffffff1681526020019081526020016000205461090e9190612386565b600860008673ffffffffffffffffffffffffffffffffffffffff1673ffffffffffffffffffffffffffffffffffffffff1681526020019081526020016000208190555081600860008573ffffffffffffffffffffffffffffffffffffffff1673ffffffffffffffffffffffffffffffffffffffff1681526020019081526020016000205461099c91906123ba565b600860008573ffffffffffffffffffffffffffffffffffffffff1673ffffffffffffffffffffffffffffffffffffffff1681526020019081526020016000208190555081600960008673ffffffffffffffffffffffffffffffffffffffff1673ffffffffffffffffffffffffffffffffffffffff16815260200190815260200160002060003373ffffffffffffffffffffffffffffffffffffffff1673ffffffffffffffffffffffffffffffffffffffff16815260200190815260200160002054610a679190612386565b600960008673ffffffffffffffffffffffffffffffffffffffff1673ffffffffffffffffffffffffffffffffffffffff16815260200190815260200160002060003373ffffffffffffffffffffffffffffffffffffffff1673ffffffffffffffffffffffffffffffffffffffff168152602001908152602001600020819055508273ffffffffffffffffffffffffffffffffffffffff168473ffffffffffffffffffffffffffffffffffffffff167fddf252ad1be2c89b69c2b068fc378daa952ba7f163c4a11628f55a4df523b3ef84604051610b449190611ec4565b60405180910390a3600190509392505050565b60086020528060005260406000206000915090505481565b6000600560009054906101000a900460ff16905090565b60065481565b60003373ffffffffffffffffffffffffffffffffffffffff1660008054906101000a900473ffffffffffffffffffffffffffffffffffffffff1673ffffffffffffffffffffffffffffffffffffffff1614610c1c576040517f08c379a0000000000000000000000000000000000000000000000000000000008152600401610c1390612460565b60405180910390fd5b600073ffffffffffffffffffffffffffffffffffffffff163373ffffffffffffffffffffffffffffffffffffffff1603610c8b576040517f08c379a0000000000000000000000000000000000000000000000000000000008152600401610c82906124cc565b60405180910390fd5b6000821015610ccf576040517f08c379a0000000000000000000000000000000000000000000000000000000008152600401610cc69061213b565b60405180910390fd5b81600860003373ffffffffffffffffffffffffffffffffffffffff1673ffffffffffffffffffffffffffffffffffffffff1681526020019081526020016000205411610d50576040517f08c379a0000000000000000000000000000000000000000000000000000000008152600401610d4790612538565b60405180910390fd5b81600860003373ffffffffffffffffffffffffffffffffffffffff1673ffffffffffffffffffffffffffffffffffffffff16815260200190815260200160002054610d9b9190612386565b600860003373ffffffffffffffffffffffffffffffffffffffff1673ffffffffffffffffffffffffffffffffffffffff1681526020019081526020016000208190555081600654610dec9190612386565b600681905550600073ffffffffffffffffffffffffffffffffffffffff163373ffffffffffffffffffffffffffffffffffffffff167fddf252ad1be2c89b69c2b068fc378daa952ba7f163c4a11628f55a4df523b3ef84604051610e509190611ec4565b60405180910390a360019050919050565b6000600860008373ffffffffffffffffffffffffffffffffffffffff1673ffffffffffffffffffffffffffffffffffffffff168152602001908152602001600020549050919050565b3373ffffffffffffffffffffffffffffffffffffffff1660008054906101000a900473ffffffffffffffffffffffffffffffffffffffff1673ffffffffffffffffffffffffffffffffffffffff1614610f38576040517f08c379a0000000000000000000000000000000000000000000000000000000008152600401610f2f90612460565b60405180910390fd5b600073ffffffffffffffffffffffffffffffffffffffff1660008054906101000a900473ffffffffffffffffffffffffffffffffffffffff1673ffffffffffffffffffffffffffffffffffffffff167f8be0079c531659141344cd1fd0a4f28419497f9722a3daafe3b4186f6b6457e060405160405180910390a360008060006101000a81548173ffffffffffffffffffffffffffffffffffffffff021916908373ffffffffffffffffffffffffffffffffffffffff160217905550565b6000600760009054906101000a900473ffffffffffffffffffffffffffffffffffffffff16905090565b60008060009054906101000a900473ffffffffffffffffffffffffffffffffffffffff16905090565b60606004805461105890612098565b80601f016020809104026020016040519081016040528092919081815260200182805461108490612098565b80156110d15780601f106110a6576101008083540402835291602001916110d1565b820191906000526020600020905b8154815290600101906020018083116110b457829003601f168201915b5050505050905090565b60003373ffffffffffffffffffffffffffffffffffffffff1660008054906101000a900473ffffffffffffffffffffffffffffffffffffffff1673ffffffffffffffffffffffffffffffffffffffff161461116b576040517f08c379a000000000000000000000000000000000000000000000000000000000815260040161116290612460565b60405180910390fd5b60008210156111af576040517f08c379a00000000000000000000000000000000000000000000000000000000081526004016111a69061213b565b60405180910390fd5b600760009054906101000a900473ffffffffffffffffffffffffffffffffffffffff1673ffffffffffffffffffffffffffffffffffffffff163373ffffffffffffffffffffffffffffffffffffffff161461123f576040517f08c379a0000000000000000000000000000000000000000000000000000000008152600401611236906125a4565b60405180910390fd5b81600860003373ffffffffffffffffffffffffffffffffffffffff1673ffffffffffffffffffffffffffffffffffffffff1681526020019081526020016000205461128a91906123ba565b600860003373ffffffffffffffffffffffffffffffffffffffff1673ffffffffffffffffffffffffffffffffffffffff16815260200190815260200160002081905550816006546112db91906123ba565b6006819055503373ffffffffffffffffffffffffffffffffffffffff16600073ffffffffffffffffffffffffffffffffffffffff167fddf252ad1be2c89b69c2b068fc378daa952ba7f163c4a11628f55a4df523b3ef8460405161133f9190611ec4565b60405180910390a360019050919050565b80600860003373ffffffffffffffffffffffffffffffffffffffff1673ffffffffffffffffffffffffffffffffffffffff16815260200190815260200160002054116113d1576040517f08c379a00000000000000000000000000000000000000000000000000000000081526004016113c890612610565b60405180910390fd5b6113da81611910565b6113e381610b8c565b5050565b600080600860003373ffffffffffffffffffffffffffffffffffffffff1673ffffffffffffffffffffffffffffffffffffffff1681526020019081526020016000205490506000600860008673ffffffffffffffffffffffffffffffffffffffff1673ffffffffffffffffffffffffffffffffffffffff168152602001908152602001600020549050600073ffffffffffffffffffffffffffffffffffffffff168573ffffffffffffffffffffffffffffffffffffffff16036114df576040517f08c379a00000000000000000000000000000000000000000000000000000000081526004016114d690612213565b60405180910390fd5b6000841015611523576040517f08c379a000000000000000000000000000000000000000000000000000000000815260040161151a9061213b565b60405180910390fd5b83821015611566576040517f08c379a000000000000000000000000000000000000000000000000000000000815260040161155d906122a5565b60405180910390fd5b83826115729190612386565b600860003373ffffffffffffffffffffffffffffffffffffffff1673ffffffffffffffffffffffffffffffffffffffff1681526020019081526020016000208190555083816115c191906123ba565b600860008773ffffffffffffffffffffffffffffffffffffffff1673ffffffffffffffffffffffffffffffffffffffff168152602001908152602001600020819055508473ffffffffffffffffffffffffffffffffffffffff163373ffffffffffffffffffffffffffffffffffffffff167fddf252ad1be2c89b69c2b068fc378daa952ba7f163c4a11628f55a4df523b3ef866040516116619190611ec4565b60405180910390a360019250505092915050565b6004805461168290612098565b80601f01602080910402602001604051908101604052809291908181526020018280546116ae90612098565b80156116fb5780601f106116d0576101008083540402835291602001916116fb565b820191906000526020600020905b8154815290600101906020018083116116de57829003601f168201915b505050505081565b6000600960008473ffffffffffffffffffffffffffffffffffffffff1673ffffffffffffffffffffffffffffffffffffffff16815260200190815260200160002060008373ffffffffffffffffffffffffffffffffffffffff1673ffffffffffffffffffffffffffffffffffffffff16815260200190815260200160002054905092915050565b6003805461179790612098565b80601f01602080910402602001604051908101604052809291908181526020018280546117c390612098565b80156118105780601f106117e557610100808354040283529160200191611810565b820191906000526020600020905b8154815290600101906020018083116117f357829003601f168201915b505050505081565b6009602052816000526040600020602052806000526040600020600091509150505481565b600760009054906101000a900473ffffffffffffffffffffffffffffffffffffffff1681565b3373ffffffffffffffffffffffffffffffffffffffff1660008054906101000a900473ffffffffffffffffffffffffffffffffffffffff1673ffffffffffffffffffffffffffffffffffffffff16146118f1576040517f08c379a00000000000000000000000000000000000000000000000000000000081526004016118e890612460565b60405180910390fd5b6118fa81611ae3565b50565b600560009054906101000a900460ff1681565b60008111611953576040517f08c379a000000000000000000000000000000000000000000000000000000000815260040161194a906126a2565b60405180910390fd5b6000600260003373ffffffffffffffffffffffffffffffffffffffff1673ffffffffffffffffffffffffffffffffffffffff1681526020019081526020016000205490506000429050600082036119b0576119ad33611c0f565b91505b600182815481106119c4576119c36126c2565b5b906000526020600020906002020160010160405180606001604052803373ffffffffffffffffffffffffffffffffffffffff16815260200185815260200183815250908060018154018082558091505060019003906000526020600020906003020160009091909190915060008201518160000160006101000a81548173ffffffffffffffffffffffffffffffffffffffff021916908373ffffffffffffffffffffffffffffffffffffffff160217905550602082015181600101556040820151816002015550503373ffffffffffffffffffffffffffffffffffffffff167fb4caaf29adda3eefee3ad552a8e85058589bf834c7466cae4ee58787f70589ed848484604051611ad6939291906126f1565b60405180910390a2505050565b600073ffffffffffffffffffffffffffffffffffffffff168173ffffffffffffffffffffffffffffffffffffffff1603611b52576040517f08c379a0000000000000000000000000000000000000000000000000000000008152600401611b499061279a565b60405180910390fd5b8073ffffffffffffffffffffffffffffffffffffffff1660008054906101000a900473ffffffffffffffffffffffffffffffffffffffff1673ffffffffffffffffffffffffffffffffffffffff167f8be0079c531659141344cd1fd0a4f28419497f9722a3daafe3b4186f6b6457e060405160405180910390a3806000806101000a81548173ffffffffffffffffffffffffffffffffffffffff021916908373ffffffffffffffffffffffffffffffffffffffff16021790555050565b60006001808160018154018082558091505003906000526020600020905050600060018080549050611c419190612386565b90508260018281548110611c5857611c576126c2565b5b906000526020600020906002020160000160006101000a81548173ffffffffffffffffffffffffffffffffffffffff021916908373ffffffffffffffffffffffffffffffffffffffff16021790555080600260008573ffffffffffffffffffffffffffffffffffffffff1673ffffffffffffffffffffffffffffffffffffffff1681526020019081526020016000208190555080915050919050565b600081519050919050565b600082825260208201905092915050565b60005b83811015611d2e578082015181840152602081019050611d13565b60008484015250505050565b6000601f19601f8301169050919050565b6000611d5682611cf4565b611d608185611cff565b9350611d70818560208601611d10565b611d7981611d3a565b840191505092915050565b60006020820190508181036000830152611d9e8184611d4b565b905092915050565b600080fd5b600073ffffffffffffffffffffffffffffffffffffffff82169050919050565b6000611dd682611dab565b9050919050565b611de681611dcb565b8114611df157600080fd5b50565b600081359050611e0381611ddd565b92915050565b6000819050919050565b611e1c81611e09565b8114611e2757600080fd5b50565b600081359050611e3981611e13565b92915050565b60008060408385031215611e5657611e55611da6565b5b6000611e6485828601611df4565b9250506020611e7585828601611e2a565b9150509250929050565b60008115159050919050565b611e9481611e7f565b82525050565b6000602082019050611eaf6000830184611e8b565b92915050565b611ebe81611e09565b82525050565b6000602082019050611ed96000830184611eb5565b92915050565b600080600060608486031215611ef857611ef7611da6565b5b6000611f0686828701611df4565b9350506020611f1786828701611df4565b9250506040611f2886828701611e2a565b9150509250925092565b600060208284031215611f4857611f47611da6565b5b6000611f5684828501611df4565b91505092915050565b600060ff82169050919050565b611f7581611f5f565b82525050565b6000602082019050611f906000830184611f6c565b92915050565b600060208284031215611fac57611fab611da6565b5b6000611fba84828501611e2a565b91505092915050565b611fcc81611dcb565b82525050565b6000602082019050611fe76000830184611fc3565b92915050565b6000806040838503121561200457612003611da6565b5b600061201285828601611df4565b925050602061202385828601611df4565b9150509250929050565b600061203882611dab565b9050919050565b6120488161202d565b82525050565b6000602082019050612063600083018461203f565b92915050565b7f4e487b7100000000000000000000000000000000000000000000000000000000600052602260045260246000fd5b600060028204905060018216806120b057607f821691505b6020821081036120c3576120c2612069565b5b50919050565b7f416d6f756e74206d7573742062652067726561746572206f7220657175616c2060008201527f746f203000000000000000000000000000000000000000000000000000000000602082015250565b6000612125602483611cff565b9150612130826120c9565b604082019050919050565b6000602082019050818103600083015261215481612118565b9050919050565b7f6164647265737320696e76616c69640000000000000000000000000000000000600082015250565b6000612191600f83611cff565b915061219c8261215b565b602082019050919050565b600060208201905081810360008301526121c081612184565b9050919050565b7f526563697069656e74206164647265737320696e76616c696400000000000000600082015250565b60006121fd601983611cff565b9150612208826121c7565b602082019050919050565b6000602082019050818103600083015261222c816121f0565b9050919050565b7f53656e64657220646f6573206e6f74206861766520656e6f7567682062616c6160008201527f6e63650000000000000000000000000000000000000000000000000000000000602082015250565b600061228f602383611cff565b915061229a82612233565b604082019050919050565b600060208201905081810360008301526122be81612282565b9050919050565b7f53656e64657220646f6573206e6f74206861766520656e6f75676820616c6c6f60008201527f77616e6365000000000000000000000000000000000000000000000000000000602082015250565b6000612321602583611cff565b915061232c826122c5565b604082019050919050565b6000602082019050818103600083015261235081612314565b9050919050565b7f4e487b7100000000000000000000000000000000000000000000000000000000600052601160045260246000fd5b600061239182611e09565b915061239c83611e09565b92508282039050818111156123b4576123b3612357565b5b92915050565b60006123c582611e09565b91506123d083611e09565b92508282019050808211156123e8576123e7612357565b5b92915050565b7f4f776e61626c653a206f6e6c79206f776e65722063616e2063616c6c2074686960008201527f732066756e6374696f6e00000000000000000000000000000000000000000000602082015250565b600061244a602a83611cff565b9150612455826123ee565b604082019050919050565b600060208201905081810360008301526124798161243d565b9050919050565b7f496e76616c6964206275726e20726563697069656e7400000000000000000000600082015250565b60006124b6601683611cff565b91506124c182612480565b602082019050919050565b600060208201905081810360008301526124e5816124a9565b9050919050565b7f4275726e20616d6f756e7420657863656564732062616c616e63650000000000600082015250565b6000612522601b83611cff565b915061252d826124ec565b602082019050919050565b6000602082019050818103600083015261255181612515565b9050919050565b7f4f6e6c7920746865206f776e65722063616e206d696e7420746f6b656e730000600082015250565b600061258e601e83611cff565b915061259982612558565b602082019050919050565b600060208201905081810360008301526125bd81612581565b9050919050565b7f4e6f7420656e6f75676820746f6b656e7320746f207374616b65000000000000600082015250565b60006125fa601a83611cff565b9150612605826125c4565b602082019050919050565b60006020820190508181036000830152612629816125ed565b9050919050565b7f5374616b6561626c653a20416d6f756e74206d7573742062652067726561746560008201527f72207468616e2030000000000000000000000000000000000000000000000000602082015250565b600061268c602883611cff565b915061269782612630565b604082019050919050565b600060208201905081810360008301526126bb8161267f565b9050919050565b7f4e487b7100000000000000000000000000000000000000000000000000000000600052603260045260246000fd5b60006060820190506127066000830186611eb5565b6127136020830185611eb5565b6127206040830184611eb5565b949350505050565b7f4f776e61626c653a206e6577206f776e657220697320746865207a65726f206160008201527f6464726573730000000000000000000000000000000000000000000000000000602082015250565b6000612784602683611cff565b915061278f82612728565b604082019050919050565b600060208201905081810360008301526127b381612777565b905091905056fea2646970667358221220d6e6cd3a844fe3f5480179b890e181f6a52aa22eab7bba0e67adee7d531d2ffe64736f6c63430008120033",
  "immutableReferences": {},
  "source": "// SPDX-License-Identifier: MIT\n// contracts/token.sol\n\npragma solidity >=0.8.0 <0.9.0;\n\nimport './ownable.sol';\nimport './stackable.sol';\n\ninterface IBEP20 {\n    /**\n     * @dev Returns the amount of tokens in existence.\n     */\n    function totalSupply() external view returns (uint256);\n\n    /**\n     * @dev Returns the token decimals.\n     */\n    function decimals() external view returns (uint8);\n\n    /**\n     * @dev Returns the token symbol.\n     */\n    function symbol() external view returns (string memory);\n\n    /**\n     * @dev Returns the token name.\n     */\n    function name() external view returns (string memory);\n\n    /**\n     * @dev Returns the bep token owner.\n     */\n    function getOwner() external view returns (address);\n\n    /**\n     * @dev Returns the amount of tokens owned by `account`.\n     */\n    function balanceOf(address account) external view returns (uint256);\n\n    /**\n     * @dev Moves `amount` tokens from the caller's account to `recipient`.\n     *\n     * Returns a boolean value indicating whether the operation succeeded.\n     *\n     * Emits a {Transfer} event.\n     */\n    function transfer(address recipient, uint256 amount) external returns (bool);\n\n    /**\n     * @dev Returns the remaining number of tokens that `spender` will be\n     * allowed to spend on behalf of `owner` through {transferFrom}. This is\n     * zero by default.\n     *\n     * This value changes when {approve} or {transferFrom} are called.\n     */\n    function allowance(address _owner, address spender) external view returns (uint256);\n\n    /**\n     * @dev Sets `amount` as the allowance of `spender` over the caller's tokens.\n     *\n     * Returns a boolean value indicating whether the operation succeeded.\n     *\n     * IMPORTANT: Beware that changing an allowance with this method brings the risk\n     * that someone may use both the old and the new allowance by unfortunate\n     * transaction ordering. One possible solution to mitigate this race\n     * condition is to first reduce the spender's allowance to 0 and set the\n     * desired value afterwards:\n     * https://github.com/ethereum/EIPs/issues/20#issuecomment-263524729\n     *\n     * Emits an {Approval} event.\n     */\n    function approve(address spender, uint256 amount) external returns (bool);\n\n    /**\n     * @dev Moves `amount` tokens from `sender` to `recipient` using the\n     * allowance mechanism. `amount` is then deducted from the caller's\n     * allowance.\n     *\n     * Returns a boolean value indicating whether the operation succeeded.\n     *\n     * Emits a {Transfer} event.\n     */\n    function transferFrom(address sender, address recipient, uint256 amount) external returns (bool);\n\n    /**\n     * @dev Emitted when `value` tokens are moved from one account (`from`) to\n     * another (`to`).\n     *\n     * Note that `value` may be zero.\n     */\n    event Transfer(address indexed from, address indexed to, uint256 value);\n\n    /**\n     * @dev Emitted when the allowance of a `spender` for an `owner` is set by\n     * a call to {approve}. `value` is the new allowance.\n     */\n    event Approval(address indexed owner, address indexed spender, uint256 value);\n}\n\n/**\n * @notice Token is IBEP20 and Ownable\n */\n\ncontract Token is IBEP20, Ownable, Stackable {\n\n    string public name_; // The name of the token\n    string public symbol_; // The symbol of the token (e.g. SNT)\n    uint8 public decimals_; // The number of decimals of the token\n    uint256 public totalSupply_; // The total amount of tokens in existence\n    address payable public owner_; // The owner of the token\n\n    /* this creates a mapping with all balances */\n    mapping (address => uint256) public balanceOf_;\n\n    /* this creates a mapping of accounts with allowances */\n    mapping (address => mapping (address => uint256)) public allowance_;\n\n    constructor() {\n        name_ = \"Block2School Coin\";\n        symbol_ = \"B2S\";\n        decimals_ = 8;\n        uint256 _initialSupply = 10000000 * (10 ** decimals_);\n\n        /* Sets the owner of the token to whoever deployed it */\n        owner_ = payable(msg.sender);\n\n        balanceOf_[owner_] = _initialSupply; // transfer the initial supply to the owner\n        totalSupply_ = _initialSupply; // set the total supply of tokens\n\n        /* Whenever tokens are created, burnt or transferred, the Transfert event is emitted */\n        emit Transfer(address(0), msg.sender, _initialSupply);\n    }\n\n    function totalSupply() external view override returns (uint256) {\n        return totalSupply_;\n    }\n\n    function decimals() external view override returns (uint8) {\n        return decimals_;\n    }\n\n    function symbol() external view override returns (string memory) {\n        return symbol_;\n    }\n\n    function name() external view override returns (string memory) {\n        return name_;\n    }\n\n    function getOwner() external view override returns (address) {\n        return owner_;\n    }\n\n    function balanceOf(address account) external view override returns (uint256) {\n        return balanceOf_[account];\n    }\n\n    function transfer(address recipient, uint256 amount) external override returns (bool) {\n        uint256 senderBalance = balanceOf_[msg.sender];\n        uint256 recipientBalance = balanceOf_[recipient];\n\n        /* Process some checks before the transfer */\n        require(recipient != address(0), \"Recipient address invalid\");\n        require(amount >= 0, \"Amount must be greater or equal to 0\");\n        require(senderBalance >= amount, \"Sender does not have enough balance\");\n\n        /* Transfer the tokens */\n        balanceOf_[msg.sender] = senderBalance - amount;\n        balanceOf_[recipient] = recipientBalance + amount;\n\n        /* Emit the transfer event */\n        emit Transfer(msg.sender, recipient, amount);\n\n        return true;\n    }\n\n    function allowance(address _owner, address spender) external view override returns (uint256) {\n        return allowance_[_owner][spender];\n    }\n\n    function approve(address spender, uint256 amount) external override returns (bool) {\n        /* Process some checks before the approval */\n        require(amount >= 0, \"Amount must be greater or equal to 0\");\n        require(msg.sender != address(0), \"address invalid\");\n\n        /* Set the allowance */\n        allowance_[msg.sender][spender] = amount;\n\n        /* Emit the approval event */\n        emit Approval(msg.sender, spender, amount);\n\n        return true;\n    }\n\n    function transferFrom(address sender, address recipient, uint256 amount) external override returns (bool) {\n        /* Process some checks before the transfer */\n        require(recipient != address(0), \"Recipient address invalid\");\n        require(amount >= 0, \"Amount must be greater or equal to 0\");\n        require(balanceOf_[sender] >= amount, \"Sender does not have enough balance\");\n        require(allowance_[sender][msg.sender] >= amount, \"Sender does not have enough allowance\");\n\n        /* Transfer the tokens */\n        balanceOf_[sender] = balanceOf_[sender] - amount;\n        balanceOf_[recipient] = balanceOf_[recipient] + amount;\n        allowance_[sender][msg.sender] = allowance_[sender][msg.sender] - amount;\n\n        /* Emit the transfer event */\n        emit Transfer(sender, recipient, amount);\n\n        return true;\n    }\n\n    function mint(uint256 amount) public onlyOwner returns (bool) {\n        /* Process some checks before the mint */\n        require(amount >= 0, \"Amount must be greater or equal to 0\");\n        require(msg.sender == owner_, \"Only the owner can mint tokens\");\n\n        /* Mint the tokens */\n        balanceOf_[msg.sender] = balanceOf_[msg.sender] + amount;\n        totalSupply_ = totalSupply_ + amount;\n\n        /* Emit the mint event */\n        emit Transfer(address(0), msg.sender, amount);\n\n        return true;\n    }\n\n    function burn(uint256 amount) public onlyOwner returns (bool) {\n        /* Process some checks before the burn */\n        require(msg.sender != address(0), \"Invalid burn recipient\");\n        require(amount >= 0, \"Amount must be greater or equal to 0\");\n        require(balanceOf_[msg.sender] > amount, \"Burn amount exceeds balance\");\n\n        /* Burn the tokens */\n        balanceOf_[msg.sender] = balanceOf_[msg.sender] - amount;\n        totalSupply_ = totalSupply_ - amount;\n\n        /* Emit the burn event */\n        emit Transfer(msg.sender, address(0), amount);\n\n        return true;\n    }\n\n    /**\n    * Add functionality like burn to the _stake function\n    *\n    */\n    function stake(uint256 _amount) public {\n        // make sure the user has enough tokens to stake\n        require(balanceOf_[msg.sender] > _amount, \"Not enough tokens to stake\");\n\n        _stake(_amount);\n        // burn the tokens\n        burn(_amount);\n    }\n}",
  "sourcePath": "/Users/gabrielknies/Desktop/Epitech/EIP/coin/contracts/token.sol",
  "compiler": {
    "name": "solc",
    "version": "0.8.18+commit.87f61d96.Emscripten.clang"
  },
  "schemaVersion": "3.4.11",
  "updatedAt": "2023-02-17T17:18:43.635Z",
  "networkType": "ethereum",
  "devdoc": {
    "events": {
      "Approval(address,address,uint256)": {
        "details": "Emitted when the allowance of a `spender` for an `owner` is set by a call to {approve}. `value` is the new allowance."
      },
      "Transfer(address,address,uint256)": {
        "details": "Emitted when `value` tokens are moved from one account (`from`) to another (`to`). Note that `value` may be zero."
      }
    },
    "kind": "dev",
    "methods": {
      "allowance(address,address)": {
        "details": "Returns the remaining number of tokens that `spender` will be allowed to spend on behalf of `owner` through {transferFrom}. This is zero by default. This value changes when {approve} or {transferFrom} are called."
      },
      "approve(address,uint256)": {
        "details": "Sets `amount` as the allowance of `spender` over the caller's tokens. Returns a boolean value indicating whether the operation succeeded. IMPORTANT: Beware that changing an allowance with this method brings the risk that someone may use both the old and the new allowance by unfortunate transaction ordering. One possible solution to mitigate this race condition is to first reduce the spender's allowance to 0 and set the desired value afterwards: https://github.com/ethereum/EIPs/issues/20#issuecomment-263524729 Emits an {Approval} event."
      },
      "balanceOf(address)": {
        "details": "Returns the amount of tokens owned by `account`."
      },
      "decimals()": {
        "details": "Returns the token decimals."
      },
      "getOwner()": {
        "details": "Returns the bep token owner."
      },
      "name()": {
        "details": "Returns the token name."
      },
      "symbol()": {
        "details": "Returns the token symbol."
      },
      "totalSupply()": {
        "details": "Returns the amount of tokens in existence."
      },
      "transfer(address,uint256)": {
        "details": "Moves `amount` tokens from the caller's account to `recipient`. Returns a boolean value indicating whether the operation succeeded. Emits a {Transfer} event."
      },
      "transferFrom(address,address,uint256)": {
        "details": "Moves `amount` tokens from `sender` to `recipient` using the allowance mechanism. `amount` is then deducted from the caller's allowance. Returns a boolean value indicating whether the operation succeeded. Emits a {Transfer} event."
      }
    },
    "version": 1
  },
  "userdoc": {
    "events": {
      "OwnershipTransferred(address,address)": {
        "notice": "Event OwnershipTransferred is used to log that a ownership change of the token has occured"
      },
      "Staked(address,uint256,uint256,uint256)": {
        "notice": "Staked event is triggered whenever a user stakes tokens, address is indexed to make it filterable"
      }
    },
    "kind": "user",
    "methods": {
      "owner()": {
        "notice": "owner() returns the currently assigned owner of the Token "
      },
      "renounceOwnership()": {
        "notice": "renounceOwnership will set the owner to zero address This will make the contract owner less, It will make ALL functions with onlyOwner no longer callable. There is no way of restoring the owner"
      },
      "stake(uint256)": {
        "notice": "Add functionality like burn to the _stake function"
      },
      "transferOwnership(address)": {
        "notice": "transferOwnership will assign the {newOwner} as owner"
      }
    },
    "notice": "Token is IBEP20 and Ownable",
    "version": 1
  }
}