{
  "contractName": "Token",
  "abi": [
    {
      "inputs": [],
      "stateMutability": "nonpayable",
      "type": "constructor"
    },
    {
      "anonymous": false,
      "inputs": [
        {
          "indexed": true,
          "internalType": "address",
          "name": "owner",
          "type": "address"
        },
        {
          "indexed": true,
          "internalType": "address",
          "name": "spender",
          "type": "address"
        },
        {
          "indexed": false,
          "internalType": "uint256",
          "name": "value",
          "type": "uint256"
        }
      ],
      "name": "Approval",
      "type": "event"
    },
    {
      "anonymous": false,
      "inputs": [
        {
          "indexed": true,
          "internalType": "address",
          "name": "previousOwner",
          "type": "address"
        },
        {
          "indexed": true,
          "internalType": "address",
          "name": "newOwner",
          "type": "address"
        }
      ],
      "name": "OwnershipTransferred",
      "type": "event"
    },
    {
      "anonymous": false,
      "inputs": [
        {
          "indexed": true,
          "internalType": "address",
          "name": "user",
          "type": "address"
        },
        {
          "indexed": false,
          "internalType": "uint256",
          "name": "amount",
          "type": "uint256"
        },
        {
          "indexed": false,
          "internalType": "uint256",
          "name": "index",
          "type": "uint256"
        },
        {
          "indexed": false,
          "internalType": "uint256",
          "name": "timestamp",
          "type": "uint256"
        }
      ],
      "name": "Staked",
      "type": "event"
    },
    {
      "anonymous": false,
      "inputs": [
        {
          "indexed": true,
          "internalType": "address",
          "name": "from",
          "type": "address"
        },
        {
          "indexed": true,
          "internalType": "address",
          "name": "to",
          "type": "address"
        },
        {
          "indexed": false,
          "internalType": "uint256",
          "name": "value",
          "type": "uint256"
        }
      ],
      "name": "Transfer",
      "type": "event"
    },
    {
      "inputs": [
        {
          "internalType": "address",
          "name": "",
          "type": "address"
        },
        {
          "internalType": "address",
          "name": "",
          "type": "address"
        }
      ],
      "name": "allowance_",
      "outputs": [
        {
          "internalType": "uint256",
          "name": "",
          "type": "uint256"
        }
      ],
      "stateMutability": "view",
      "type": "function",
      "constant": true
    },
    {
      "inputs": [
        {
          "internalType": "address",
          "name": "",
          "type": "address"
        }
      ],
      "name": "balanceOf_",
      "outputs": [
        {
          "internalType": "uint256",
          "name": "",
          "type": "uint256"
        }
      ],
      "stateMutability": "view",
      "type": "function",
      "constant": true
    },
    {
      "inputs": [],
      "name": "decimals_",
      "outputs": [
        {
          "internalType": "uint8",
          "name": "",
          "type": "uint8"
        }
      ],
      "stateMutability": "view",
      "type": "function",
      "constant": true
    },
    {
      "inputs": [
        {
          "internalType": "address",
          "name": "_staker",
          "type": "address"
        }
      ],
      "name": "hasStake",
      "outputs": [
        {
          "components": [
            {
              "internalType": "uint256",
              "name": "total_amount",
              "type": "uint256"
            },
            {
              "components": [
                {
                  "internalType": "address",
                  "name": "user",
                  "type": "address"
                },
                {
                  "internalType": "uint256",
                  "name": "amount",
                  "type": "uint256"
                },
                {
                  "internalType": "uint256",
                  "name": "since",
                  "type": "uint256"
                },
                {
                  "internalType": "uint256",
                  "name": "claimable",
                  "type": "uint256"
                }
              ],
              "internalType": "struct Stackable.Stake[]",
              "name": "stakes",
              "type": "tuple[]"
            }
          ],
          "internalType": "struct Stackable.StakingSummary",
          "name": "",
          "type": "tuple"
        }
      ],
      "stateMutability": "view",
      "type": "function",
      "constant": true
    },
    {
      "inputs": [],
      "name": "name_",
      "outputs": [
        {
          "internalType": "string",
          "name": "",
          "type": "string"
        }
      ],
      "stateMutability": "view",
      "type": "function",
      "constant": true
    },
    {
      "inputs": [],
      "name": "owner",
      "outputs": [
        {
          "internalType": "address",
          "name": "",
          "type": "address"
        }
      ],
      "stateMutability": "view",
      "type": "function",
      "constant": true
    },
    {
      "inputs": [],
      "name": "owner_",
      "outputs": [
        {
          "internalType": "address payable",
          "name": "",
          "type": "address"
        }
      ],
      "stateMutability": "view",
      "type": "function",
      "constant": true
    },
    {
      "inputs": [],
      "name": "renounceOwnership",
      "outputs": [],
      "stateMutability": "nonpayable",
      "type": "function"
    },
    {
      "inputs": [],
      "name": "symbol_",
      "outputs": [
        {
          "internalType": "string",
          "name": "",
          "type": "string"
        }
      ],
      "stateMutability": "view",
      "type": "function",
      "constant": true
    },
    {
      "inputs": [],
      "name": "totalSupply_",
      "outputs": [
        {
          "internalType": "uint256",
          "name": "",
          "type": "uint256"
        }
      ],
      "stateMutability": "view",
      "type": "function",
      "constant": true
    },
    {
      "inputs": [
        {
          "internalType": "address",
          "name": "newOwner",
          "type": "address"
        }
      ],
      "name": "transferOwnership",
      "outputs": [],
      "stateMutability": "nonpayable",
      "type": "function"
    },
    {
      "inputs": [],
      "name": "totalSupply",
      "outputs": [
        {
          "internalType": "uint256",
          "name": "",
          "type": "uint256"
        }
      ],
      "stateMutability": "view",
      "type": "function",
      "constant": true
    },
    {
      "inputs": [],
      "name": "decimals",
      "outputs": [
        {
          "internalType": "uint8",
          "name": "",
          "type": "uint8"
        }
      ],
      "stateMutability": "view",
      "type": "function",
      "constant": true
    },
    {
      "inputs": [],
      "name": "symbol",
      "outputs": [
        {
          "internalType": "string",
          "name": "",
          "type": "string"
        }
      ],
      "stateMutability": "view",
      "type": "function",
      "constant": true
    },
    {
      "inputs": [],
      "name": "name",
      "outputs": [
        {
          "internalType": "string",
          "name": "",
          "type": "string"
        }
      ],
      "stateMutability": "view",
      "type": "function",
      "constant": true
    },
    {
      "inputs": [],
      "name": "getOwner",
      "outputs": [
        {
          "internalType": "address",
          "name": "",
          "type": "address"
        }
      ],
      "stateMutability": "view",
      "type": "function",
      "constant": true
    },
    {
      "inputs": [
        {
          "internalType": "address",
          "name": "account",
          "type": "address"
        }
      ],
      "name": "balanceOf",
      "outputs": [
        {
          "internalType": "uint256",
          "name": "",
          "type": "uint256"
        }
      ],
      "stateMutability": "view",
      "type": "function",
      "constant": true
    },
    {
      "inputs": [
        {
          "internalType": "address",
          "name": "recipient",
          "type": "address"
        },
        {
          "internalType": "uint256",
          "name": "amount",
          "type": "uint256"
        }
      ],
      "name": "transfer",
      "outputs": [
        {
          "internalType": "bool",
          "name": "",
          "type": "bool"
        }
      ],
      "stateMutability": "nonpayable",
      "type": "function"
    },
    {
      "inputs": [
        {
          "internalType": "address",
          "name": "_owner",
          "type": "address"
        },
        {
          "internalType": "address",
          "name": "spender",
          "type": "address"
        }
      ],
      "name": "allowance",
      "outputs": [
        {
          "internalType": "uint256",
          "name": "",
          "type": "uint256"
        }
      ],
      "stateMutability": "view",
      "type": "function",
      "constant": true
    },
    {
      "inputs": [
        {
          "internalType": "address",
          "name": "spender",
          "type": "address"
        },
        {
          "internalType": "uint256",
          "name": "amount",
          "type": "uint256"
        }
      ],
      "name": "approve",
      "outputs": [
        {
          "internalType": "bool",
          "name": "",
          "type": "bool"
        }
      ],
      "stateMutability": "nonpayable",
      "type": "function"
    },
    {
      "inputs": [
        {
          "internalType": "address",
          "name": "sender",
          "type": "address"
        },
        {
          "internalType": "address",
          "name": "recipient",
          "type": "address"
        },
        {
          "internalType": "uint256",
          "name": "amount",
          "type": "uint256"
        }
      ],
      "name": "transferFrom",
      "outputs": [
        {
          "internalType": "bool",
          "name": "",
          "type": "bool"
        }
      ],
      "stateMutability": "nonpayable",
      "type": "function"
    },
    {
      "inputs": [
        {
          "internalType": "uint256",
          "name": "amount",
          "type": "uint256"
        }
      ],
      "name": "mint",
      "outputs": [
        {
          "internalType": "bool",
          "name": "",
          "type": "bool"
        }
      ],
      "stateMutability": "nonpayable",
      "type": "function"
    },
    {
      "inputs": [
        {
          "internalType": "uint256",
          "name": "amount",
          "type": "uint256"
        }
      ],
      "name": "buyTokens",
      "outputs": [
        {
          "internalType": "bool",
          "name": "",
          "type": "bool"
        }
      ],
      "stateMutability": "payable",
      "type": "function",
      "payable": true
    },
    {
      "inputs": [],
      "name": "withdraw",
      "outputs": [
        {
          "internalType": "bool",
          "name": "",
          "type": "bool"
        }
      ],
      "stateMutability": "nonpayable",
      "type": "function"
    },
    {
      "inputs": [
        {
          "internalType": "uint256",
          "name": "amount",
          "type": "uint256"
        }
      ],
      "name": "burn",
      "outputs": [
        {
          "internalType": "bool",
          "name": "",
          "type": "bool"
        }
      ],
      "stateMutability": "nonpayable",
      "type": "function"
    },
    {
      "inputs": [
        {
          "internalType": "uint256",
          "name": "_amount",
          "type": "uint256"
        }
      ],
      "name": "stake",
      "outputs": [],
      "stateMutability": "nonpayable",
      "type": "function"
    },
    {
      "inputs": [
        {
          "internalType": "uint256",
          "name": "_amount",
          "type": "uint256"
        },
        {
          "internalType": "uint256",
          "name": "stake_index",
          "type": "uint256"
        }
      ],
      "name": "withdrawStake",
      "outputs": [],
      "stateMutability": "nonpayable",
      "type": "function"
    }
  ],
  "bytecode": "0x60806040526103e86003553480156200001757600080fd5b50336000806101000a81548173ffffffffffffffffffffffffffffffffffffffff021916908373ffffffffffffffffffffffffffffffffffffffff16021790555060008054906101000a900473ffffffffffffffffffffffffffffffffffffffff1673ffffffffffffffffffffffffffffffffffffffff16600073ffffffffffffffffffffffffffffffffffffffff167f8be0079c531659141344cd1fd0a4f28419497f9722a3daafe3b4186f6b6457e060405160405180910390a360018081600181540180825580915050039060005260206000209050506040518060400160405280601681526020017f426c6f636b325363686f6f6c20436f696e205465737400000000000000000000815250600490816200013691906200056f565b506040518060400160405280600481526020017f4232535400000000000000000000000000000000000000000000000000000000815250600590816200017d91906200056f565b506012600660006101000a81548160ff021916908360ff1602179055506000600660009054906101000a900460ff16600a620001ba9190620007e6565b62989680620001ca919062000837565b905064174876e80060098190555033600860006101000a81548173ffffffffffffffffffffffffffffffffffffffff021916908373ffffffffffffffffffffffffffffffffffffffff16021790555080600a6000600860009054906101000a900473ffffffffffffffffffffffffffffffffffffffff1673ffffffffffffffffffffffffffffffffffffffff1673ffffffffffffffffffffffffffffffffffffffff16815260200190815260200160002081905550806007819055503373ffffffffffffffffffffffffffffffffffffffff16600073ffffffffffffffffffffffffffffffffffffffff167fddf252ad1be2c89b69c2b068fc378daa952ba7f163c4a11628f55a4df523b3ef83604051620002e6919062000893565b60405180910390a350620008b0565b600081519050919050565b7f4e487b7100000000000000000000000000000000000000000000000000000000600052604160045260246000fd5b7f4e487b7100000000000000000000000000000000000000000000000000000000600052602260045260246000fd5b600060028204905060018216806200037757607f821691505b6020821081036200038d576200038c6200032f565b5b50919050565b60008190508160005260206000209050919050565b60006020601f8301049050919050565b600082821b905092915050565b600060088302620003f77fffffffffffffffffffffffffffffffffffffffffffffffffffffffffffffffff82620003b8565b620004038683620003b8565b95508019841693508086168417925050509392505050565b6000819050919050565b6000819050919050565b6000620004506200044a62000444846200041b565b62000425565b6200041b565b9050919050565b6000819050919050565b6200046c836200042f565b620004846200047b8262000457565b848454620003c5565b825550505050565b600090565b6200049b6200048c565b620004a881848462000461565b505050565b5b81811015620004d057620004c460008262000491565b600181019050620004ae565b5050565b601f8211156200051f57620004e98162000393565b620004f484620003a8565b8101602085101562000504578190505b6200051c6200051385620003a8565b830182620004ad565b50505b505050565b600082821c905092915050565b6000620005446000198460080262000524565b1980831691505092915050565b60006200055f838362000531565b9150826002028217905092915050565b6200057a82620002f5565b67ffffffffffffffff81111562000596576200059562000300565b5b620005a282546200035e565b620005af828285620004d4565b600060209050601f831160018114620005e75760008415620005d2578287015190505b620005de858262000551565b8655506200064e565b601f198416620005f78662000393565b60005b828110156200062157848901518255600182019150602085019450602081019050620005fa565b868310156200064157848901516200063d601f89168262000531565b8355505b6001600288020188555050505b505050505050565b7f4e487b7100000000000000000000000000000000000000000000000000000000600052601160045260246000fd5b60008160011c9050919050565b6000808291508390505b6001851115620006e457808604811115620006bc57620006bb62000656565b5b6001851615620006cc5780820291505b8081029050620006dc8562000685565b94506200069c565b94509492505050565b600082620006ff5760019050620007d2565b816200070f5760009050620007d2565b8160018114620007285760028114620007335762000769565b6001915050620007d2565b60ff84111562000748576200074762000656565b5b8360020a91508482111562000762576200076162000656565b5b50620007d2565b5060208310610133831016604e8410600b8410161715620007a35782820a9050838111156200079d576200079c62000656565b5b620007d2565b620007b2848484600162000692565b92509050818404811115620007cc57620007cb62000656565b5b81810290505b9392505050565b600060ff82169050919050565b6000620007f3826200041b565b91506200080083620007d9565b92506200082f7fffffffffffffffffffffffffffffffffffffffffffffffffffffffffffffffff8484620006ed565b905092915050565b600062000844826200041b565b915062000851836200041b565b925082820262000861816200041b565b915082820484148315176200087b576200087a62000656565b5b5092915050565b6200088d816200041b565b82525050565b6000602082019050620008aa600083018462000882565b92915050565b613b2a80620008c06000396000f3fe60806040526004361061019c5760003560e01c80638da5cb5b116100ec578063e2b9e1861161008a578063e766307911610064578063e766307914610621578063f1fdf4691461064c578063f2fde38b14610675578063f785ef721461069e5761019c565b8063e2b9e1861461057c578063e670e41d146105a7578063e73e14bf146105e45761019c565b8063a694fc3a116100c6578063a694fc3a146104ae578063a9059cbb146104d7578063af17dea614610514578063dd62ed3e1461053f5761019c565b80638da5cb5b1461041b57806395d89b4114610446578063a0712d68146104715761019c565b8063324536eb1161015957806342966c681161013357806342966c681461035f57806370a082311461039c578063715018a6146103d9578063893d20e8146103f05761019c565b8063324536eb146102d95780633610724e146103045780633ccfd60b146103345761019c565b806306fdde03146101a1578063095ea7b3146101cc57806318160ddd1461020957806323b872dd146102345780632e953e7714610271578063313ce567146102ae575b600080fd5b3480156101ad57600080fd5b506101b66106c9565b6040516101c39190612b3b565b60405180910390f35b3480156101d857600080fd5b506101f360048036038101906101ee9190612bf6565b61075b565b6040516102009190612c51565b60405180910390f35b34801561021557600080fd5b5061021e6108ff565b60405161022b9190612c7b565b60405180910390f35b34801561024057600080fd5b5061025b60048036038101906102569190612c96565b610909565b6040516102689190612c51565b60405180910390f35b34801561027d57600080fd5b5061029860048036038101906102939190612ce9565b610d92565b6040516102a59190612c7b565b60405180910390f35b3480156102ba57600080fd5b506102c3610daa565b6040516102d09190612d32565b60405180910390f35b3480156102e557600080fd5b506102ee610dc1565b6040516102fb9190612c7b565b60405180910390f35b61031e60048036038101906103199190612d4d565b610dc7565b60405161032b9190612c51565b60405180910390f35b34801561034057600080fd5b50610349610f6c565b6040516103569190612c51565b60405180910390f35b34801561036b57600080fd5b5061038660048036038101906103819190612d4d565b61106c565b6040516103939190612c51565b60405180910390f35b3480156103a857600080fd5b506103c360048036038101906103be9190612ce9565b611341565b6040516103d09190612c7b565b60405180910390f35b3480156103e557600080fd5b506103ee61138a565b005b3480156103fc57600080fd5b506104056114d6565b6040516104129190612d89565b60405180910390f35b34801561042757600080fd5b50610430611500565b60405161043d9190612d89565b60405180910390f35b34801561045257600080fd5b5061045b611529565b6040516104689190612b3b565b60405180910390f35b34801561047d57600080fd5b5061049860048036038101906104939190612d4d565b6115bb565b6040516104a59190612c51565b60405180910390f35b3480156104ba57600080fd5b506104d560048036038101906104d09190612d4d565b611830565b005b3480156104e357600080fd5b506104fe60048036038101906104f99190612bf6565b6118c7565b60405161050b9190612c51565b60405180910390f35b34801561052057600080fd5b50610529611b55565b6040516105369190612b3b565b60405180910390f35b34801561054b57600080fd5b5061056660048036038101906105619190612da4565b611be3565b6040516105739190612c7b565b60405180910390f35b34801561058857600080fd5b50610591611c6a565b60405161059e9190612b3b565b60405180910390f35b3480156105b357600080fd5b506105ce60048036038101906105c99190612da4565b611cf8565b6040516105db9190612c7b565b60405180910390f35b3480156105f057600080fd5b5061060b60048036038101906106069190612ce9565b611d1d565b6040516106189190612f43565b60405180910390f35b34801561062d57600080fd5b50610636611f2a565b6040516106439190612f86565b60405180910390f35b34801561065857600080fd5b50610673600480360381019061066e9190612fa1565b611f50565b005b34801561068157600080fd5b5061069c60048036038101906106979190612ce9565b611f6d565b005b3480156106aa57600080fd5b506106b3612007565b6040516106c09190612d32565b60405180910390f35b6060600480546106d890613010565b80601f016020809104026020016040519081016040528092919081815260200182805461070490613010565b80156107515780601f1061072657610100808354040283529160200191610751565b820191906000526020600020905b81548152906001019060200180831161073457829003601f168201915b5050505050905090565b6000808210156107a0576040517f08c379a0000000000000000000000000000000000000000000000000000000008152600401610797906130b3565b60405180910390fd5b600073ffffffffffffffffffffffffffffffffffffffff163373ffffffffffffffffffffffffffffffffffffffff160361080f576040517f08c379a00000000000000000000000000000000000000000000000000000000081526004016108069061311f565b60405180910390fd5b81600b60003373ffffffffffffffffffffffffffffffffffffffff1673ffffffffffffffffffffffffffffffffffffffff16815260200190815260200160002060008573ffffffffffffffffffffffffffffffffffffffff1673ffffffffffffffffffffffffffffffffffffffff168152602001908152602001600020819055508273ffffffffffffffffffffffffffffffffffffffff163373ffffffffffffffffffffffffffffffffffffffff167f8c5be1e5ebec7d5bd14f71427d1e84f3dd0314c0f7b2291e5b200ac8c7c3b925846040516108ed9190612c7b565b60405180910390a36001905092915050565b6000600754905090565b60008073ffffffffffffffffffffffffffffffffffffffff168373ffffffffffffffffffffffffffffffffffffffff1603610979576040517f08c379a00000000000000000000000000000000000000000000000000000000081526004016109709061318b565b60405180910390fd5b60008210156109bd576040517f08c379a00000000000000000000000000000000000000000000000000000000081526004016109b4906130b3565b60405180910390fd5b81600a60008673ffffffffffffffffffffffffffffffffffffffff1673ffffffffffffffffffffffffffffffffffffffff168152602001908152602001600020541015610a3f576040517f08c379a0000000000000000000000000000000000000000000000000000000008152600401610a369061321d565b60405180910390fd5b81600b60008673ffffffffffffffffffffffffffffffffffffffff1673ffffffffffffffffffffffffffffffffffffffff16815260200190815260200160002060003373ffffffffffffffffffffffffffffffffffffffff1673ffffffffffffffffffffffffffffffffffffffff168152602001908152602001600020541015610afe576040517f08c379a0000000000000000000000000000000000000000000000000000000008152600401610af5906132af565b60405180910390fd5b81600a60008673ffffffffffffffffffffffffffffffffffffffff1673ffffffffffffffffffffffffffffffffffffffff16815260200190815260200160002054610b4991906132fe565b600a60008673ffffffffffffffffffffffffffffffffffffffff1673ffffffffffffffffffffffffffffffffffffffff1681526020019081526020016000208190555081600a60008573ffffffffffffffffffffffffffffffffffffffff1673ffffffffffffffffffffffffffffffffffffffff16815260200190815260200160002054610bd79190613332565b600a60008573ffffffffffffffffffffffffffffffffffffffff1673ffffffffffffffffffffffffffffffffffffffff1681526020019081526020016000208190555081600b60008673ffffffffffffffffffffffffffffffffffffffff1673ffffffffffffffffffffffffffffffffffffffff16815260200190815260200160002060003373ffffffffffffffffffffffffffffffffffffffff1673ffffffffffffffffffffffffffffffffffffffff16815260200190815260200160002054610ca291906132fe565b600b60008673ffffffffffffffffffffffffffffffffffffffff1673ffffffffffffffffffffffffffffffffffffffff16815260200190815260200160002060003373ffffffffffffffffffffffffffffffffffffffff1673ffffffffffffffffffffffffffffffffffffffff168152602001908152602001600020819055508273ffffffffffffffffffffffffffffffffffffffff168473ffffffffffffffffffffffffffffffffffffffff167fddf252ad1be2c89b69c2b068fc378daa952ba7f163c4a11628f55a4df523b3ef84604051610d7f9190612c7b565b60405180910390a3600190509392505050565b600a6020528060005260406000206000915090505481565b6000600660009054906101000a900460ff16905090565b60075481565b6000808211610e0b576040517f08c379a0000000000000000000000000000000000000000000000000000000008152600401610e02906133b2565b60405180910390fd5b60095482610e1991906133d2565b341015610e5b576040517f08c379a0000000000000000000000000000000000000000000000000000000008152600401610e5290613460565b60405180910390fd5b81600a60003373ffffffffffffffffffffffffffffffffffffffff1673ffffffffffffffffffffffffffffffffffffffff16815260200190815260200160002054610ea69190613332565b600a60003373ffffffffffffffffffffffffffffffffffffffff1673ffffffffffffffffffffffffffffffffffffffff1681526020019081526020016000208190555081600754610ef79190613332565b6007819055503373ffffffffffffffffffffffffffffffffffffffff16600073ffffffffffffffffffffffffffffffffffffffff167fddf252ad1be2c89b69c2b068fc378daa952ba7f163c4a11628f55a4df523b3ef84604051610f5b9190612c7b565b60405180910390a360019050919050565b60003373ffffffffffffffffffffffffffffffffffffffff1660008054906101000a900473ffffffffffffffffffffffffffffffffffffffff1673ffffffffffffffffffffffffffffffffffffffff1614610ffc576040517f08c379a0000000000000000000000000000000000000000000000000000000008152600401610ff3906134f2565b60405180910390fd5b600860009054906101000a900473ffffffffffffffffffffffffffffffffffffffff1673ffffffffffffffffffffffffffffffffffffffff166108fc479081150290604051600060405180830381858888f19350505050158015611064573d6000803e3d6000fd5b506001905090565b60003373ffffffffffffffffffffffffffffffffffffffff1660008054906101000a900473ffffffffffffffffffffffffffffffffffffffff1673ffffffffffffffffffffffffffffffffffffffff16146110fc576040517f08c379a00000000000000000000000000000000000000000000000000000000081526004016110f3906134f2565b60405180910390fd5b600073ffffffffffffffffffffffffffffffffffffffff163373ffffffffffffffffffffffffffffffffffffffff160361116b576040517f08c379a00000000000000000000000000000000000000000000000000000000081526004016111629061355e565b60405180910390fd5b60008210156111af576040517f08c379a00000000000000000000000000000000000000000000000000000000081526004016111a6906130b3565b60405180910390fd5b81600a60003373ffffffffffffffffffffffffffffffffffffffff1673ffffffffffffffffffffffffffffffffffffffff1681526020019081526020016000205411611230576040517f08c379a0000000000000000000000000000000000000000000000000000000008152600401611227906135ca565b60405180910390fd5b81600a60003373ffffffffffffffffffffffffffffffffffffffff1673ffffffffffffffffffffffffffffffffffffffff1681526020019081526020016000205461127b91906132fe565b600a60003373ffffffffffffffffffffffffffffffffffffffff1673ffffffffffffffffffffffffffffffffffffffff16815260200190815260200160002081905550816007546112cc91906132fe565b600781905550600073ffffffffffffffffffffffffffffffffffffffff163373ffffffffffffffffffffffffffffffffffffffff167fddf252ad1be2c89b69c2b068fc378daa952ba7f163c4a11628f55a4df523b3ef846040516113309190612c7b565b60405180910390a360019050919050565b6000600a60008373ffffffffffffffffffffffffffffffffffffffff1673ffffffffffffffffffffffffffffffffffffffff168152602001908152602001600020549050919050565b3373ffffffffffffffffffffffffffffffffffffffff1660008054906101000a900473ffffffffffffffffffffffffffffffffffffffff1673ffffffffffffffffffffffffffffffffffffffff1614611418576040517f08c379a000000000000000000000000000000000000000000000000000000000815260040161140f906134f2565b60405180910390fd5b600073ffffffffffffffffffffffffffffffffffffffff1660008054906101000a900473ffffffffffffffffffffffffffffffffffffffff1673ffffffffffffffffffffffffffffffffffffffff167f8be0079c531659141344cd1fd0a4f28419497f9722a3daafe3b4186f6b6457e060405160405180910390a360008060006101000a81548173ffffffffffffffffffffffffffffffffffffffff021916908373ffffffffffffffffffffffffffffffffffffffff160217905550565b6000600860009054906101000a900473ffffffffffffffffffffffffffffffffffffffff16905090565b60008060009054906101000a900473ffffffffffffffffffffffffffffffffffffffff16905090565b60606005805461153890613010565b80601f016020809104026020016040519081016040528092919081815260200182805461156490613010565b80156115b15780601f10611586576101008083540402835291602001916115b1565b820191906000526020600020905b81548152906001019060200180831161159457829003601f168201915b5050505050905090565b60003373ffffffffffffffffffffffffffffffffffffffff1660008054906101000a900473ffffffffffffffffffffffffffffffffffffffff1673ffffffffffffffffffffffffffffffffffffffff161461164b576040517f08c379a0000000000000000000000000000000000000000000000000000000008152600401611642906134f2565b60405180910390fd5b600082101561168f576040517f08c379a0000000000000000000000000000000000000000000000000000000008152600401611686906130b3565b60405180910390fd5b600860009054906101000a900473ffffffffffffffffffffffffffffffffffffffff1673ffffffffffffffffffffffffffffffffffffffff163373ffffffffffffffffffffffffffffffffffffffff161461171f576040517f08c379a000000000000000000000000000000000000000000000000000000000815260040161171690613636565b60405180910390fd5b81600a60003373ffffffffffffffffffffffffffffffffffffffff1673ffffffffffffffffffffffffffffffffffffffff1681526020019081526020016000205461176a9190613332565b600a60003373ffffffffffffffffffffffffffffffffffffffff1673ffffffffffffffffffffffffffffffffffffffff16815260200190815260200160002081905550816007546117bb9190613332565b6007819055503373ffffffffffffffffffffffffffffffffffffffff16600073ffffffffffffffffffffffffffffffffffffffff167fddf252ad1be2c89b69c2b068fc378daa952ba7f163c4a11628f55a4df523b3ef8460405161181f9190612c7b565b60405180910390a360019050919050565b80600a60003373ffffffffffffffffffffffffffffffffffffffff1673ffffffffffffffffffffffffffffffffffffffff16815260200190815260200160002054116118b1576040517f08c379a00000000000000000000000000000000000000000000000000000000081526004016118a8906136a2565b60405180910390fd5b6118ba8161201a565b6118c433826121fe565b50565b600080600a60003373ffffffffffffffffffffffffffffffffffffffff1673ffffffffffffffffffffffffffffffffffffffff1681526020019081526020016000205490506000600a60008673ffffffffffffffffffffffffffffffffffffffff1673ffffffffffffffffffffffffffffffffffffffff168152602001908152602001600020549050600073ffffffffffffffffffffffffffffffffffffffff168573ffffffffffffffffffffffffffffffffffffffff16036119bf576040517f08c379a00000000000000000000000000000000000000000000000000000000081526004016119b69061318b565b60405180910390fd5b6000841015611a03576040517f08c379a00000000000000000000000000000000000000000000000000000000081526004016119fa906130b3565b60405180910390fd5b83821015611a46576040517f08c379a0000000000000000000000000000000000000000000000000000000008152600401611a3d9061321d565b60405180910390fd5b8382611a5291906132fe565b600a60003373ffffffffffffffffffffffffffffffffffffffff1673ffffffffffffffffffffffffffffffffffffffff168152602001908152602001600020819055508381611aa19190613332565b600a60008773ffffffffffffffffffffffffffffffffffffffff1673ffffffffffffffffffffffffffffffffffffffff168152602001908152602001600020819055508473ffffffffffffffffffffffffffffffffffffffff163373ffffffffffffffffffffffffffffffffffffffff167fddf252ad1be2c89b69c2b068fc378daa952ba7f163c4a11628f55a4df523b3ef86604051611b419190612c7b565b60405180910390a360019250505092915050565b60058054611b6290613010565b80601f0160208091040260200160405190810160405280929190818152602001828054611b8e90613010565b8015611bdb5780601f10611bb057610100808354040283529160200191611bdb565b820191906000526020600020905b815481529060010190602001808311611bbe57829003601f168201915b505050505081565b6000600b60008473ffffffffffffffffffffffffffffffffffffffff1673ffffffffffffffffffffffffffffffffffffffff16815260200190815260200160002060008373ffffffffffffffffffffffffffffffffffffffff1673ffffffffffffffffffffffffffffffffffffffff16815260200190815260200160002054905092915050565b60048054611c7790613010565b80601f0160208091040260200160405190810160405280929190818152602001828054611ca390613010565b8015611cf05780601f10611cc557610100808354040283529160200191611cf0565b820191906000526020600020905b815481529060010190602001808311611cd357829003601f168201915b505050505081565b600b602052816000526040600020602052806000526040600020600091509150505481565b611d25612a91565b6000806040518060400160405280600081526020016001600260008873ffffffffffffffffffffffffffffffffffffffff1673ffffffffffffffffffffffffffffffffffffffff1681526020019081526020016000205481548110611d8d57611d8c6136c2565b5b9060005260206000209060020201600101805480602002602001604051908101604052809291908181526020016000905b82821015611e6457838290600052602060002090600402016040518060800160405290816000820160009054906101000a900473ffffffffffffffffffffffffffffffffffffffff1673ffffffffffffffffffffffffffffffffffffffff1673ffffffffffffffffffffffffffffffffffffffff168152602001600182015481526020016002820154815260200160038201548152505081526020019060010190611dbe565b50505050815250905060005b816020015151811015611f15576000611ea683602001518381518110611e9957611e986136c2565b5b60200260200101516123fb565b90508083602001518381518110611ec057611ebf6136c2565b5b6020026020010151606001818152505082602001518281518110611ee757611ee66136c2565b5b60200260200101516020015184611efe9190613332565b935050600181611f0e9190613332565b9050611e70565b50818160000181815250508092505050919050565b600860009054906101000a900473ffffffffffffffffffffffffffffffffffffffff1681565b6000611f5c838361243d565b9050611f683382612705565b505050565b3373ffffffffffffffffffffffffffffffffffffffff1660008054906101000a900473ffffffffffffffffffffffffffffffffffffffff1673ffffffffffffffffffffffffffffffffffffffff1614611ffb576040517f08c379a0000000000000000000000000000000000000000000000000000000008152600401611ff2906134f2565b60405180910390fd5b61200481612880565b50565b600660009054906101000a900460ff1681565b6000811161205d576040517f08c379a000000000000000000000000000000000000000000000000000000000815260040161205490613763565b60405180910390fd5b6000600260003373ffffffffffffffffffffffffffffffffffffffff1673ffffffffffffffffffffffffffffffffffffffff1681526020019081526020016000205490506000429050600082036120ba576120b7336129ac565b91505b600182815481106120ce576120cd6136c2565b5b906000526020600020906002020160010160405180608001604052803373ffffffffffffffffffffffffffffffffffffffff1681526020018581526020018381526020016000815250908060018154018082558091505060019003906000526020600020906004020160009091909190915060008201518160000160006101000a81548173ffffffffffffffffffffffffffffffffffffffff021916908373ffffffffffffffffffffffffffffffffffffffff16021790555060208201518160010155604082015181600201556060820151816003015550503373ffffffffffffffffffffffffffffffffffffffff167fb4caaf29adda3eefee3ad552a8e85058589bf834c7466cae4ee58787f70589ed8484846040516121f193929190613783565b60405180910390a2505050565b600073ffffffffffffffffffffffffffffffffffffffff168273ffffffffffffffffffffffffffffffffffffffff160361226d576040517f08c379a00000000000000000000000000000000000000000000000000000000081526004016122649061382c565b60405180910390fd5b80600a60008473ffffffffffffffffffffffffffffffffffffffff1673ffffffffffffffffffffffffffffffffffffffff1681526020019081526020016000205410156122ef576040517f08c379a00000000000000000000000000000000000000000000000000000000081526004016122e6906138be565b60405180910390fd5b80600a60008473ffffffffffffffffffffffffffffffffffffffff1673ffffffffffffffffffffffffffffffffffffffff1681526020019081526020016000205461233a91906132fe565b600a60008473ffffffffffffffffffffffffffffffffffffffff1673ffffffffffffffffffffffffffffffffffffffff168152602001908152602001600020819055508060075461238b91906132fe565b600781905550600073ffffffffffffffffffffffffffffffffffffffff168273ffffffffffffffffffffffffffffffffffffffff167fddf252ad1be2c89b69c2b068fc378daa952ba7f163c4a11628f55a4df523b3ef836040516123ef9190612c7b565b60405180910390a35050565b60006003548260200151610e1084604001514261241891906132fe565b612422919061390d565b61242c91906133d2565b612436919061390d565b9050919050565b600080600260003373ffffffffffffffffffffffffffffffffffffffff1673ffffffffffffffffffffffffffffffffffffffff168152602001908152602001600020549050600060018281548110612498576124976136c2565b5b906000526020600020906002020160010184815481106124bb576124ba6136c2565b5b90600052602060002090600402016040518060800160405290816000820160009054906101000a900473ffffffffffffffffffffffffffffffffffffffff1673ffffffffffffffffffffffffffffffffffffffff1673ffffffffffffffffffffffffffffffffffffffff168152602001600182015481526020016002820154815260200160038201548152505090508481602001511015612591576040517f08c379a0000000000000000000000000000000000000000000000000000000008152600401612588906139b0565b60405180910390fd5b600061259c826123fb565b90508582602001516125ae91906132fe565b826020018181525050600082602001510361264f57600183815481106125d7576125d66136c2565b5b906000526020600020906002020160010185815481106125fa576125f96136c2565b5b9060005260206000209060040201600080820160006101000a81549073ffffffffffffffffffffffffffffffffffffffff021916905560018201600090556002820160009055600382016000905550506126ee565b816020015160018481548110612668576126676136c2565b5b9060005260206000209060020201600101868154811061268b5761268a6136c2565b5b90600052602060002090600402016001018190555042600184815481106126b5576126b46136c2565b5b906000526020600020906002020160010186815481106126d8576126d76136c2565b5b9060005260206000209060040201600201819055505b80866126fa9190613332565b935050505092915050565b600073ffffffffffffffffffffffffffffffffffffffff168273ffffffffffffffffffffffffffffffffffffffff1603612774576040517f08c379a000000000000000000000000000000000000000000000000000000000815260040161276b90613a42565b60405180910390fd5b806007546127829190613332565b60078190555080600a60008473ffffffffffffffffffffffffffffffffffffffff1673ffffffffffffffffffffffffffffffffffffffff168152602001908152602001600020546127d39190613332565b600a60008473ffffffffffffffffffffffffffffffffffffffff1673ffffffffffffffffffffffffffffffffffffffff168152602001908152602001600020819055508173ffffffffffffffffffffffffffffffffffffffff16600073ffffffffffffffffffffffffffffffffffffffff167fddf252ad1be2c89b69c2b068fc378daa952ba7f163c4a11628f55a4df523b3ef836040516128749190612c7b565b60405180910390a35050565b600073ffffffffffffffffffffffffffffffffffffffff168173ffffffffffffffffffffffffffffffffffffffff16036128ef576040517f08c379a00000000000000000000000000000000000000000000000000000000081526004016128e690613ad4565b60405180910390fd5b8073ffffffffffffffffffffffffffffffffffffffff1660008054906101000a900473ffffffffffffffffffffffffffffffffffffffff1673ffffffffffffffffffffffffffffffffffffffff167f8be0079c531659141344cd1fd0a4f28419497f9722a3daafe3b4186f6b6457e060405160405180910390a3806000806101000a81548173ffffffffffffffffffffffffffffffffffffffff021916908373ffffffffffffffffffffffffffffffffffffffff16021790555050565b600060018081600181540180825580915050039060005260206000209050506000600180805490506129de91906132fe565b905082600182815481106129f5576129f46136c2565b5b906000526020600020906002020160000160006101000a81548173ffffffffffffffffffffffffffffffffffffffff021916908373ffffffffffffffffffffffffffffffffffffffff16021790555080600260008573ffffffffffffffffffffffffffffffffffffffff1673ffffffffffffffffffffffffffffffffffffffff1681526020019081526020016000208190555080915050919050565b604051806040016040528060008152602001606081525090565b600081519050919050565b600082825260208201905092915050565b60005b83811015612ae5578082015181840152602081019050612aca565b60008484015250505050565b6000601f19601f8301169050919050565b6000612b0d82612aab565b612b178185612ab6565b9350612b27818560208601612ac7565b612b3081612af1565b840191505092915050565b60006020820190508181036000830152612b558184612b02565b905092915050565b600080fd5b600073ffffffffffffffffffffffffffffffffffffffff82169050919050565b6000612b8d82612b62565b9050919050565b612b9d81612b82565b8114612ba857600080fd5b50565b600081359050612bba81612b94565b92915050565b6000819050919050565b612bd381612bc0565b8114612bde57600080fd5b50565b600081359050612bf081612bca565b92915050565b60008060408385031215612c0d57612c0c612b5d565b5b6000612c1b85828601612bab565b9250506020612c2c85828601612be1565b9150509250929050565b60008115159050919050565b612c4b81612c36565b82525050565b6000602082019050612c666000830184612c42565b92915050565b612c7581612bc0565b82525050565b6000602082019050612c906000830184612c6c565b92915050565b600080600060608486031215612caf57612cae612b5d565b5b6000612cbd86828701612bab565b9350506020612cce86828701612bab565b9250506040612cdf86828701612be1565b9150509250925092565b600060208284031215612cff57612cfe612b5d565b5b6000612d0d84828501612bab565b91505092915050565b600060ff82169050919050565b612d2c81612d16565b82525050565b6000602082019050612d476000830184612d23565b92915050565b600060208284031215612d6357612d62612b5d565b5b6000612d7184828501612be1565b91505092915050565b612d8381612b82565b82525050565b6000602082019050612d9e6000830184612d7a565b92915050565b60008060408385031215612dbb57612dba612b5d565b5b6000612dc985828601612bab565b9250506020612dda85828601612bab565b9150509250929050565b612ded81612bc0565b82525050565b600081519050919050565b600082825260208201905092915050565b6000819050602082019050919050565b612e2881612b82565b82525050565b608082016000820151612e446000850182612e1f565b506020820151612e576020850182612de4565b506040820151612e6a6040850182612de4565b506060820151612e7d6060850182612de4565b50505050565b6000612e8f8383612e2e565b60808301905092915050565b6000602082019050919050565b6000612eb382612df3565b612ebd8185612dfe565b9350612ec883612e0f565b8060005b83811015612ef9578151612ee08882612e83565b9750612eeb83612e9b565b925050600181019050612ecc565b5085935050505092915050565b6000604083016000830151612f1e6000860182612de4565b5060208301518482036020860152612f368282612ea8565b9150508091505092915050565b60006020820190508181036000830152612f5d8184612f06565b905092915050565b6000612f7082612b62565b9050919050565b612f8081612f65565b82525050565b6000602082019050612f9b6000830184612f77565b92915050565b60008060408385031215612fb857612fb7612b5d565b5b6000612fc685828601612be1565b9250506020612fd785828601612be1565b9150509250929050565b7f4e487b7100000000000000000000000000000000000000000000000000000000600052602260045260246000fd5b6000600282049050600182168061302857607f821691505b60208210810361303b5761303a612fe1565b5b50919050565b7f416d6f756e74206d7573742062652067726561746572206f7220657175616c2060008201527f746f203000000000000000000000000000000000000000000000000000000000602082015250565b600061309d602483612ab6565b91506130a882613041565b604082019050919050565b600060208201905081810360008301526130cc81613090565b9050919050565b7f6164647265737320696e76616c69640000000000000000000000000000000000600082015250565b6000613109600f83612ab6565b9150613114826130d3565b602082019050919050565b60006020820190508181036000830152613138816130fc565b9050919050565b7f526563697069656e74206164647265737320696e76616c696400000000000000600082015250565b6000613175601983612ab6565b91506131808261313f565b602082019050919050565b600060208201905081810360008301526131a481613168565b9050919050565b7f53656e64657220646f6573206e6f74206861766520656e6f7567682062616c6160008201527f6e63650000000000000000000000000000000000000000000000000000000000602082015250565b6000613207602383612ab6565b9150613212826131ab565b604082019050919050565b60006020820190508181036000830152613236816131fa565b9050919050565b7f53656e64657220646f6573206e6f74206861766520656e6f75676820616c6c6f60008201527f77616e6365000000000000000000000000000000000000000000000000000000602082015250565b6000613299602583612ab6565b91506132a48261323d565b604082019050919050565b600060208201905081810360008301526132c88161328c565b9050919050565b7f4e487b7100000000000000000000000000000000000000000000000000000000600052601160045260246000fd5b600061330982612bc0565b915061331483612bc0565b925082820390508181111561332c5761332b6132cf565b5b92915050565b600061333d82612bc0565b915061334883612bc0565b92508282019050808211156133605761335f6132cf565b5b92915050565b7f416d6f756e74206d7573742062652067726561746572207468616e2030000000600082015250565b600061339c601d83612ab6565b91506133a782613366565b602082019050919050565b600060208201905081810360008301526133cb8161338f565b9050919050565b60006133dd82612bc0565b91506133e883612bc0565b92508282026133f681612bc0565b9150828204841483151761340d5761340c6132cf565b5b5092915050565b7f4e6f7420656e6f75676820424e422073656e7400000000000000000000000000600082015250565b600061344a601383612ab6565b915061345582613414565b602082019050919050565b600060208201905081810360008301526134798161343d565b9050919050565b7f4f776e61626c653a206f6e6c79206f776e65722063616e2063616c6c2074686960008201527f732066756e6374696f6e00000000000000000000000000000000000000000000602082015250565b60006134dc602a83612ab6565b91506134e782613480565b604082019050919050565b6000602082019050818103600083015261350b816134cf565b9050919050565b7f496e76616c6964206275726e20726563697069656e7400000000000000000000600082015250565b6000613548601683612ab6565b915061355382613512565b602082019050919050565b600060208201905081810360008301526135778161353b565b9050919050565b7f4275726e20616d6f756e7420657863656564732062616c616e63650000000000600082015250565b60006135b4601b83612ab6565b91506135bf8261357e565b602082019050919050565b600060208201905081810360008301526135e3816135a7565b9050919050565b7f4f6e6c7920746865206f776e65722063616e206d696e7420746f6b656e730000600082015250565b6000613620601e83612ab6565b915061362b826135ea565b602082019050919050565b6000602082019050818103600083015261364f81613613565b9050919050565b7f4e6f7420656e6f75676820746f6b656e7320746f207374616b65000000000000600082015250565b600061368c601a83612ab6565b915061369782613656565b602082019050919050565b600060208201905081810360008301526136bb8161367f565b9050919050565b7f4e487b7100000000000000000000000000000000000000000000000000000000600052603260045260246000fd5b7f5374616b6561626c653a20416d6f756e74206d7573742062652067726561746560008201527f72207468616e2030000000000000000000000000000000000000000000000000602082015250565b600061374d602883612ab6565b9150613758826136f1565b604082019050919050565b6000602082019050818103600083015261377c81613740565b9050919050565b60006060820190506137986000830186612c6c565b6137a56020830185612c6c565b6137b26040830184612c6c565b949350505050565b7f446576546f6b656e3a2063616e6e6f74206275726e2066726f6d207a65726f2060008201527f6164647265737300000000000000000000000000000000000000000000000000602082015250565b6000613816602783612ab6565b9150613821826137ba565b604082019050919050565b6000602082019050818103600083015261384581613809565b9050919050565b7f446576546f6b656e3a2043616e6e6f74206275726e206d6f7265207468616e2060008201527f746865206163636f756e74206f776e7300000000000000000000000000000000602082015250565b60006138a8603083612ab6565b91506138b38261384c565b604082019050919050565b600060208201905081810360008301526138d78161389b565b9050919050565b7f4e487b7100000000000000000000000000000000000000000000000000000000600052601260045260246000fd5b600061391882612bc0565b915061392383612bc0565b925082613933576139326138de565b5b828204905092915050565b7f5374616b696e673a2043616e6e6f74207769746864726177206d6f726520746860008201527f616e20796f752068617665207374616b65640000000000000000000000000000602082015250565b600061399a603283612ab6565b91506139a58261393e565b604082019050919050565b600060208201905081810360008301526139c98161398d565b9050919050565b7f446576546f6b656e3a2063616e6e6f74206d696e7420746f207a65726f20616460008201527f6472657373000000000000000000000000000000000000000000000000000000602082015250565b6000613a2c602583612ab6565b9150613a37826139d0565b604082019050919050565b60006020820190508181036000830152613a5b81613a1f565b9050919050565b7f4f776e61626c653a206e6577206f776e657220697320746865207a65726f206160008201527f6464726573730000000000000000000000000000000000000000000000000000602082015250565b6000613abe602683612ab6565b9150613ac982613a62565b604082019050919050565b60006020820190508181036000830152613aed81613ab1565b905091905056fea26469706673582212209757309392eebdbc106c64bb302852958e36be70c440d60d312fff987a4ae7e664736f6c63430008120033",
  "immutableReferences": {},
  "source": "// SPDX-License-Identifier: MIT\n// contracts/token.sol\n\npragma solidity >=0.8.0 <0.9.0;\n\nimport './ownable.sol';\nimport './stackable.sol';\n\ninterface IBEP20 {\n    /**\n     * @dev Returns the amount of tokens in existence.\n     */\n    function totalSupply() external view returns (uint256);\n\n    /**\n     * @dev Returns the token decimals.\n     */\n    function decimals() external view returns (uint8);\n\n    /**\n     * @dev Returns the token symbol.\n     */\n    function symbol() external view returns (string memory);\n\n    /**\n     * @dev Returns the token name.\n     */\n    function name() external view returns (string memory);\n\n    /**\n     * @dev Returns the bep token owner.\n     */\n    function getOwner() external view returns (address);\n\n    /**\n     * @dev Returns the amount of tokens owned by `account`.\n     */\n    function balanceOf(address account) external view returns (uint256);\n\n    /**\n     * @dev Moves `amount` tokens from the caller's account to `recipient`.\n     *\n     * Returns a boolean value indicating whether the operation succeeded.\n     *\n     * Emits a {Transfer} event.\n     */\n    function transfer(address recipient, uint256 amount) external returns (bool);\n\n    /**\n     * @dev Returns the remaining number of tokens that `spender` will be\n     * allowed to spend on behalf of `owner` through {transferFrom}. This is\n     * zero by default.\n     *\n     * This value changes when {approve} or {transferFrom} are called.\n     */\n    function allowance(address _owner, address spender) external view returns (uint256);\n\n    /**\n     * @dev Sets `amount` as the allowance of `spender` over the caller's tokens.\n     *\n     * Returns a boolean value indicating whether the operation succeeded.\n     *\n     * IMPORTANT: Beware that changing an allowance with this method brings the risk\n     * that someone may use both the old and the new allowance by unfortunate\n     * transaction ordering. One possible solution to mitigate this race\n     * condition is to first reduce the spender's allowance to 0 and set the\n     * desired value afterwards:\n     * https://github.com/ethereum/EIPs/issues/20#issuecomment-263524729\n     *\n     * Emits an {Approval} event.\n     */\n    function approve(address spender, uint256 amount) external returns (bool);\n\n    /**\n     * @dev Moves `amount` tokens from `sender` to `recipient` using the\n     * allowance mechanism. `amount` is then deducted from the caller's\n     * allowance.\n     *\n     * Returns a boolean value indicating whether the operation succeeded.\n     *\n     * Emits a {Transfer} event.\n     */\n    function transferFrom(address sender, address recipient, uint256 amount) external returns (bool);\n\n    /**\n     * @dev Emitted when `value` tokens are moved from one account (`from`) to\n     * another (`to`).\n     *\n     * Note that `value` may be zero.\n     */\n    event Transfer(address indexed from, address indexed to, uint256 value);\n\n    /**\n     * @dev Emitted when the allowance of a `spender` for an `owner` is set by\n     * a call to {approve}. `value` is the new allowance.\n     */\n    event Approval(address indexed owner, address indexed spender, uint256 value);\n}\n\n/**\n * @notice Token is IBEP20 and Ownable\n */\n\ncontract Token is IBEP20, Ownable, Stackable {\n\n    string public name_; // The name of the token\n    string public symbol_; // The symbol of the token (e.g. SNT)\n    uint8 public decimals_; // The number of decimals of the token\n    uint256 public totalSupply_; // The total amount of tokens in existence\n    address payable public owner_; // The owner of the token\n    uint256 private tokenPrice_; // The price of the token\n\n    /* this creates a mapping with all balances */\n    mapping (address => uint256) public balanceOf_;\n\n    /* this creates a mapping of accounts with allowances */\n    mapping (address => mapping (address => uint256)) public allowance_;\n\n    constructor() {\n        name_ = \"Block2School Coin Test\";\n        symbol_ = \"B2ST\";\n        decimals_ = 18;\n        uint256 _initialSupply = 10000000 * (10 ** decimals_);\n        tokenPrice_ = 0.0000001 ether;\n\n        /* Sets the owner of the token to whoever deployed it */\n        owner_ = payable(msg.sender);\n\n        balanceOf_[owner_] = _initialSupply; // transfer the initial supply to the owner\n        totalSupply_ = _initialSupply; // set the total supply of tokens\n\n        /* Whenever tokens are created, burnt or transferred, the Transfert event is emitted */\n        emit Transfer(address(0), msg.sender, _initialSupply);\n    }\n\n    function totalSupply() external view override returns (uint256) {\n        return totalSupply_;\n    }\n\n    function decimals() external view override returns (uint8) {\n        return decimals_;\n    }\n\n    function symbol() external view override returns (string memory) {\n        return symbol_;\n    }\n\n    function name() external view override returns (string memory) {\n        return name_;\n    }\n\n    function getOwner() external view override returns (address) {\n        return owner_;\n    }\n\n    function balanceOf(address account) external view override returns (uint256) {\n        return balanceOf_[account];\n    }\n\n    function transfer(address recipient, uint256 amount) external override returns (bool) {\n        uint256 senderBalance = balanceOf_[msg.sender];\n        uint256 recipientBalance = balanceOf_[recipient];\n\n        /* Process some checks before the transfer */\n        require(recipient != address(0), \"Recipient address invalid\");\n        require(amount >= 0, \"Amount must be greater or equal to 0\");\n        require(senderBalance >= amount, \"Sender does not have enough balance\");\n\n        /* Transfer the tokens */\n        balanceOf_[msg.sender] = senderBalance - amount;\n        balanceOf_[recipient] = recipientBalance + amount;\n\n        /* Emit the transfer event */\n        emit Transfer(msg.sender, recipient, amount);\n\n        return true;\n    }\n\n    function allowance(address _owner, address spender) external view override returns (uint256) {\n        return allowance_[_owner][spender];\n    }\n\n    function approve(address spender, uint256 amount) external override returns (bool) {\n        /* Process some checks before the approval */\n        require(amount >= 0, \"Amount must be greater or equal to 0\");\n        require(msg.sender != address(0), \"address invalid\");\n\n        /* Set the allowance */\n        allowance_[msg.sender][spender] = amount;\n\n        /* Emit the approval event */\n        emit Approval(msg.sender, spender, amount);\n\n        return true;\n    }\n\n    function transferFrom(address sender, address recipient, uint256 amount) external override returns (bool) {\n        /* Process some checks before the transfer */\n        require(recipient != address(0), \"Recipient address invalid\");\n        require(amount >= 0, \"Amount must be greater or equal to 0\");\n        require(balanceOf_[sender] >= amount, \"Sender does not have enough balance\");\n        require(allowance_[sender][msg.sender] >= amount, \"Sender does not have enough allowance\");\n\n        /* Transfer the tokens */\n        balanceOf_[sender] = balanceOf_[sender] - amount;\n        balanceOf_[recipient] = balanceOf_[recipient] + amount;\n        allowance_[sender][msg.sender] = allowance_[sender][msg.sender] - amount;\n\n        /* Emit the transfer event */\n        emit Transfer(sender, recipient, amount);\n\n        return true;\n    }\n\n    function mint(uint256 amount) public onlyOwner returns (bool) {\n        /* Process some checks before the mint */\n        require(amount >= 0, \"Amount must be greater or equal to 0\");\n        require(msg.sender == owner_, \"Only the owner can mint tokens\");\n\n        /* Mint the tokens */\n        balanceOf_[msg.sender] = balanceOf_[msg.sender] + amount;\n        totalSupply_ = totalSupply_ + amount;\n\n        /* Emit the mint event */\n        emit Transfer(address(0), msg.sender, amount);\n\n        return true;\n    }\n\n    // function buyTokens(amount) -> the function will check if the user sent enough ether to buy the amount of tokens he wants the ethers will be kept in the contract and the tokens will be sent to the user\n    function buyTokens(uint256 amount) public payable returns (bool) {\n        /* Process some checks before the buy */\n        require(amount > 0, \"Amount must be greater than 0\");\n        require(msg.value >= amount * tokenPrice_, \"Not enough BNB sent\");\n\n        /* Buy the tokens */\n        balanceOf_[msg.sender] = balanceOf_[msg.sender] + amount;\n        totalSupply_ = totalSupply_ + amount;\n\n        /* Emit the buy event */\n        emit Transfer(address(0), msg.sender, amount);\n\n        return true;\n    }\n\n    // function withdraw() -> the function will withdraw the ethers from the contract to the owner\n    function withdraw() public onlyOwner returns (bool) {\n        /* Withdraw the ethers */\n        owner_.transfer(address(this).balance);\n\n        return true;\n    }\n\n    function _mint(address account, uint256 amount) internal {\n        require(account != address(0), \"DevToken: cannot mint to zero address\");\n        // Increase total supply\n        totalSupply_ = totalSupply_ + amount;\n        // Add the amount to the account balance\n        balanceOf_[account] = balanceOf_[account] + amount;\n        // Emit event\n        emit Transfer(address(0), account, amount);\n    }\n\n    function _burn(address account, uint256 amount) internal {\n        require(account != address(0), \"DevToken: cannot burn from zero address\");\n        require(balanceOf_[account] >= amount, \"DevToken: Cannot burn more than the account owns\");\n\n        // Remove the amount from the account balance\n        balanceOf_[account] = balanceOf_[account] - amount;\n        // Decrease totalSupply\n        totalSupply_ = totalSupply_ - amount;\n        // Emit event, use zero address as reciever\n        emit Transfer(account, address(0), amount);\n    }\n\n    function burn(uint256 amount) public onlyOwner returns (bool) {\n        /* Process some checks before the burn */\n        require(msg.sender != address(0), \"Invalid burn recipient\");\n        require(amount >= 0, \"Amount must be greater or equal to 0\");\n        require(balanceOf_[msg.sender] > amount, \"Burn amount exceeds balance\");\n\n        /* Burn the tokens */\n        balanceOf_[msg.sender] = balanceOf_[msg.sender] - amount;\n        totalSupply_ = totalSupply_ - amount;\n\n        /* Emit the burn event */\n        emit Transfer(msg.sender, address(0), amount);\n\n        return true;\n    }\n\n    /**\n    * Add functionality like burn to the _stake function\n    *\n    */\n    function stake(uint256 _amount) public {\n        // make sure the user has enough tokens to stake\n        require(balanceOf_[msg.sender] > _amount, \"Not enough tokens to stake\");\n\n        _stake(_amount);\n        // burn the tokens\n        _burn(msg.sender, _amount);\n    }\n\n    /**\n    * @notice withdrawStake is used to withdraw the staked tokens from the account holder\n    */\n    function withdrawStake(uint256 _amount, uint256 stake_index) public {\n        uint256 amount_to_mint = _withdrawStake(_amount, stake_index);\n\n        // return stacked tokens to the user\n        _mint(msg.sender, amount_to_mint);\n    }\n\n}",
  "sourcePath": "/Users/gabrielknies/Desktop/Epitech/EIP/coin/contracts/token.sol",
  "compiler": {
    "name": "solc",
    "version": "0.8.18+commit.87f61d96.Emscripten.clang"
  },
  "schemaVersion": "3.4.11",
  "updatedAt": "2023-03-12T05:27:10.229Z",
  "networkType": "ethereum",
  "devdoc": {
    "events": {
      "Approval(address,address,uint256)": {
        "details": "Emitted when the allowance of a `spender` for an `owner` is set by a call to {approve}. `value` is the new allowance."
      },
      "Transfer(address,address,uint256)": {
        "details": "Emitted when `value` tokens are moved from one account (`from`) to another (`to`). Note that `value` may be zero."
      }
    },
    "kind": "dev",
    "methods": {
      "allowance(address,address)": {
        "details": "Returns the remaining number of tokens that `spender` will be allowed to spend on behalf of `owner` through {transferFrom}. This is zero by default. This value changes when {approve} or {transferFrom} are called."
      },
      "approve(address,uint256)": {
        "details": "Sets `amount` as the allowance of `spender` over the caller's tokens. Returns a boolean value indicating whether the operation succeeded. IMPORTANT: Beware that changing an allowance with this method brings the risk that someone may use both the old and the new allowance by unfortunate transaction ordering. One possible solution to mitigate this race condition is to first reduce the spender's allowance to 0 and set the desired value afterwards: https://github.com/ethereum/EIPs/issues/20#issuecomment-263524729 Emits an {Approval} event."
      },
      "balanceOf(address)": {
        "details": "Returns the amount of tokens owned by `account`."
      },
      "decimals()": {
        "details": "Returns the token decimals."
      },
      "getOwner()": {
        "details": "Returns the bep token owner."
      },
      "name()": {
        "details": "Returns the token name."
      },
      "symbol()": {
        "details": "Returns the token symbol."
      },
      "totalSupply()": {
        "details": "Returns the amount of tokens in existence."
      },
      "transfer(address,uint256)": {
        "details": "Moves `amount` tokens from the caller's account to `recipient`. Returns a boolean value indicating whether the operation succeeded. Emits a {Transfer} event."
      },
      "transferFrom(address,address,uint256)": {
        "details": "Moves `amount` tokens from `sender` to `recipient` using the allowance mechanism. `amount` is then deducted from the caller's allowance. Returns a boolean value indicating whether the operation succeeded. Emits a {Transfer} event."
      }
    },
    "version": 1
  },
  "userdoc": {
    "events": {
      "OwnershipTransferred(address,address)": {
        "notice": "Event OwnershipTransferred is used to log that a ownership change of the token has occured"
      },
      "Staked(address,uint256,uint256,uint256)": {
        "notice": "Staked event is triggered whenever a user stakes tokens, address is indexed to make it filterable"
      }
    },
    "kind": "user",
    "methods": {
      "hasStake(address)": {
        "notice": "hasStake is used to check if a account has stakes and the total amount along with all the seperate stakes"
      },
      "owner()": {
        "notice": "owner() returns the currently assigned owner of the Token "
      },
      "renounceOwnership()": {
        "notice": "renounceOwnership will set the owner to zero address This will make the contract owner less, It will make ALL functions with onlyOwner no longer callable. There is no way of restoring the owner"
      },
      "stake(uint256)": {
        "notice": "Add functionality like burn to the _stake function"
      },
      "transferOwnership(address)": {
        "notice": "transferOwnership will assign the {newOwner} as owner"
      },
      "withdrawStake(uint256,uint256)": {
        "notice": "withdrawStake is used to withdraw the staked tokens from the account holder"
      }
    },
    "notice": "Token is IBEP20 and Ownable",
    "version": 1
  }
}